:100000000C94F1020C9422030C9422030C9422030E
:100010000C9422030C9422030C9422030C942203CC
:100020000C9422030C949D350C949D350C949D35B5
:100030000C9422030C9422030C9422030C942203AC
:100040000C9422030C9422030C9422030C9422039C
:100050000C9422030C9422030C9422030C94533529
:100060000C9422030C941D350C94F3340C9422034D
:100070000C9422030C9422030C9422030C9422036C
:100080000C9422030C9422030C9422030C9422035C
:100090000C94BD340C9493340C9422030C941936B4
:1000A0000C9422030C9422030C9422030C9422033C
:1000B0000C9422030C9422030C9422030C9422032C
:1000C0000C9422030C9422030C9422030C9422031C
:1000D0000C9422030C9422030C9422030C9422030C
:1000E0000C9422030C94A0040C94411A0C9426182E
:1000F0000C948A070C94460A0C9480060C946603B0
:100100000C943E050C942E130C9409140C94D107F6
:100110000C94E0030C945C0A0C9421150C94461684
:100120000C944C170C94B90A0C940A1A0C94B50A46
:100130000C9445180C9411040C9415130C9446055A
:100140000C947B070C94670A0C94A4070C94190573
:100150000C9489180C94381D0C9453040C94BD0A0B
:100160000C944F030C947C1A0C94DC060C945303EF
:100170000C944C050C9434050C94CD0A0C94030497
:100180000C94B3030C9450130C9469410C949D0B84
:100190000C941D050C9468060C94A90B0C94990BF7
:1001A0000C9467030C944F160C94F4060C94A70B54
:1001B0000C94AC0B0C94AB1D0C94C6100C94200545
:1001C0000C946F180C9442050C9489160C9430050D
:1001D0000C94D40A0C9411050C947E0A0C945005CE
:1001E0000C943D370C9415050C940B050C942605C6
:1001F0000C94EF030C9438050C9418140C949D0780
:100200000C9431160C944B030C942A050C9463192E
:100210000C9445190C94D50F0C94DF190C944B05D4
:100220000C948913546F6F44656570004E6F74535E
:100230007570706F72746564004E6F4D656D6F728E
:100240007900496E76616C6964496E707574004915
:100250006E636F6D706C657465496E707574004582
:100260006D707479496E707574004F6B00496E76CD
:10027000616C696420726573706F6E7365004661AE
:10028000696C656420746F2073656E64207265719B
:100290007565737400436F6E6E656374696F6E3A53
:1002A00020636C6F736500436F6E6E656374656485
:1002B0002100436F6E6E656374696F6E20666169BD
:1002C0006C656400436F6E6E656374696E672E2E95
:1002D0002E004661696C656420746F20636F6E66E2
:1002E00069677572652045746865726E657400CDC6
:1002F000CCCC3D0AD7233C17B7D13877CC2B3295DD
:1003000095E6241FB14F0A0000803FCDCCCC3D6F55
:1003100012833A95BFD6337D1D9026B3CE010C00D3
:100320000020410000C84200401C4620BCBE4CCA10
:100330001B0E5AAEC59D74646573657269616C6904
:100340007A654A736F6E2829206661696C65643A24
:100350002000496E76616C696420726573706F6EFF
:10036000736500556E6578706563746564207265A9
:1003700073706F6E73653A20004661696C65642026
:10038000746F2073656E6420696E69742072657184
:100390007565737400436F6E6E656374696F6E3A52
:1003A00020636C6F736500436F6E6E656374656484
:1003B0002100436F6E6E656374696F6E20666169BC
:1003C0006C656400436F6E6E656374696E672E2E94
:1003D0002E006A025F024F02420239022C022402FE
:1003E0005B67657474696E6720636F6D6D616E64C1
:1003F00073206572726F725D3D3E20646573657235
:1004000069616C697A654A736F6E28292066616933
:100410006C65643A2000496E76616C69642072658F
:1004200073706F6E736500556E6578706563746583
:100430006420726573706F6E73653A20004661695F
:100440006C656420746F2073656E642072657175CD
:100450006573742061626F757420636F6D6D616E7A
:10046000647300436F6E6E656374696F6E3A2063E8
:100470006C6F736500436F6E6E6563746564210015
:10048000436F6E6E656374696F6E206661696C653B
:100490006400436F6E6E656374696E672E2E2E0066
:1004A0004661696C656420746F20636F6E6669676E
:1004B0007572652045746865726E65740000000A87
:1004C0000B02090C0D0E08070304010000000000D8
:1004D000000000000000000000000000000000001C
:1004E00000000000000000000012111000000000D9
:1004F00000000000000000000000000000000000FC
:1005000000000000002100240027002A002D0030F8
:1005100000330001010000040107010A010000206E
:10052000002300260029002C002F003200000100CB
:100530000003010601090100002200250028002B0C
:10054000002E003100340002010000050108010BFB
:100550000105050505070508080808020202020A48
:100560000A08080404040401010101010101010356
:1005700003030303030303040707070C0C0C0C0C11
:100580000C0C0C0202020206060606060606060B04
:100590000B0B0B0B0B0B0B0102102020080810207B
:1005A00040102040800201020108040201010204FF
:1005B00008102040808040201008040201800402BE
:1005C0000180402010080402010804020101020415
:1005D00008102040800102040810204080003D37B0
:1005E000694111241FBECFEFD1E2DEBFCDBF00E0D5
:1005F0000CBF18E0A0E0B2E0ECEFF2E900E00BBFC6
:1006000002C007900D92A238B107D9F72CE0A2E8FA
:10061000B8E001C01D92AB38B207E1F712E0C0EFBD
:10062000D2E000E006C021970109802FFE010E9460
:10063000DB46CF3ED10780E00807A9F70E94A23928
:100640000C946C490C940000FC01A089B18982E0F3
:100650008C93A485B5851C92A685B7858FEC8C9369
:10066000108EA489B58986E08C93A289B3898C9178
:1006700080618C93A289B3898C9188608C93A289C4
:10068000B3898C9180688C930288F389E02D8081F6
:100690008F7D8083089508958CBD9DBD0895FC01D4
:1006A000818D928D0895089520E3FC012083329678
:1006B000862F82958F706F706A3030F4605D629320
:1006C000682F8111F5CF0895695CF9CF08950895D9
:1006D000FC01248135816217730748F48081918180
:1006E000009729F0860F971FFC018081089580E014
:1006F00008950895DC01ED91FC910190F081E02DC9
:100700001994DB0114964D915C9115976D917C9134
:10071000DC01ED91FC910280F381E02D1994EF92C0
:10072000FF920F931F93CF93DF938C017B01D0E057
:10073000C0E0F701EC0FFD1F6491662361F0D80162
:10074000ED91FC910190F081E02DC8011995892B64
:1007500011F02196EECFCE01DF91CF911F910F9135
:10076000FF90EF900895AF92BF92CF92DF92EF92F9
:10077000FF920F931F93CF93DF936C017B018B014B
:10078000040F151FEB015E01AE18BF08C017D1079B
:1007900059F06991D601ED91FC910190F081E02D25
:1007A000C6011995892B79F7C501DF91CF911F916A
:1007B0000F91FF90EF90DF90CF90BF90AF90089592
:1007C000FC01538D448D252F30E0842F90E0821B57
:1007D000930B541710F0CF96089501970895FC01DC
:1007E000918D828D981761F0A28DAE0FBF2FB11D34
:1007F0005D968C91928D9F5F9F73928F90E008958C
:100800008FEF9FEF0895FC01918D828D981731F045
:10081000828DE80FF11D858D90E008958FEF9FEF99
:100820000895FC01918D228D892F90E0805C9F4F6F
:10083000821B91098F739927089581E59AE00E94A0
:10084000110421E0892B09F420E0822F08958EEE17
:100850009AE00E94110421E0892B09F420E0822F04
:100860000895FC01A48DA80FB92FB11DA35ABF4F45
:100870002C91848D90E001968F739927848FA6899F
:10088000B7892C93A089B1898C91837080648C93F3
:10089000938D848D981306C00288F389E02D8081A2
:1008A0008F7D80830895EF92FF920F931F93CF93D4
:1008B000DF93EC0181E0888F9B8D8C8D98131AC09B
:1008C000E889F989808185FF15C09FB7F894EE8982
:1008D000FF896083E889F9898081837080648083DF
:1008E0009FBF81E090E0DF91CF911F910F91FF902A
:1008F000EF900895F62E0B8D10E00F5F1F4F0F73D2
:100900001127E02E8C8D8E110CC00FB607FCFACF8C
:10091000E889F989808185FFF5CFCE010E943104F5
:10092000F1CFEB8DEC0FFD2FF11DE35AFF4FF0825D
:100930009FB7F8940B8FEA89FB8980818062CFCFC3
:10094000CF93DF93EC01888D8823B9F0AA89BB8906
:10095000E889F9898C9185FD03C0808186FD0DC0F1
:100960000FB607FCF7CF8C9185FFF2CF808185FF12
:10097000EDCFCE010E943104E9CFDF91CF910895F0
:1009800080E090E0892B29F00E94270481110E94C9
:10099000000080E090E0892B29F00E941D04811165
:1009A0000E94000080E090E0892B49F080E090E018
:1009B000892B29F00E94000081110E94000080E034
:1009C00090E0892B49F080E090E0892B29F00E948B
:1009D000000081110C94000008958150823108F0CC
:1009E0005AC0E82FF0E08827E750FB4F8F4F0C9458
:1009F000DB4619051D050B05110515054B052005E1
:100A000026052A053005340538053E0542054B0507
:100A100046054C055005809180008F7780938000BB
:100A20000895809180008F7DF9CF80918000877F2D
:100A3000F5CF84B58F7784BD089584B58F7DFBCFC6
:100A40008091B0008F778093B00008958091B000BE
:100A50008F7DF9CF809190008F77809390000895DB
:100A6000809190008F7DF9CF80919000877FF5CFA6
:100A70008091A0008F778093A00008958091A000BE
:100A80008F7DF9CF8091A000877FF5CF80912001E5
:100A90008F77809320010895809120018F7DF9CF79
:100AA00080912001877FF5CFCF93DF93E0EFF4E0D3
:100AB0008491EAECF5E0D491E4E8F5E0C491CC232C
:100AC000A1F081110E94ED04EC2FF0E0EE0FFF1F6A
:100AD000E35EFA4FA591B491EC91ED2381E090E0B3
:100AE00009F480E0DF91CF91089580E090E0FACFA3
:100AF0001F93CF93DF93282F30E0F901E354FB4F8E
:100B00008491F901E956FA4FD491F901EF5AFA4F5D
:100B1000C491CC23A9F0162F81110E94ED04EC2F73
:100B2000F0E0EE0FFF1FE95CFA4FA591B4918FB78B
:100B3000F894EC91111108C0D095DE23DC938FBF9F
:100B4000DF91CF911F910895DE2BF8CFCF93DF93E4
:100B500090E0FC01E956FA4F24918F5A9A4FFC011C
:100B600084918823D1F090E0880F991FFC01ED5FFC
:100B7000FA4FA591B491FC01E95CFA4FC591D4916B
:100B800061110EC09FB7F8948C91E22FE0958E23EF
:100B90008C932881E223E8839FBFDF91CF91089552
:100BA0008FB7F894EC91E22BEC938FBFF6CF3FB761
:100BB000F8948091940990919509A0919609B0912B
:100BC000970926B5A89B05C02F3F19F00196A11DD6
:100BD000B11D3FBFBA2FA92F982F8827BC01CD0187
:100BE000620F711D811D911D42E0660F771F881FE6
:100BF000991F4A95D1F708958F929F92AF92BF9215
:100C0000CF92DF92EF92FF924B015C010E94D705D9
:100C10006B017C010E94D7056C197D098E099F0923
:100C2000683E734081059105A8F321E0821A91087E
:100C3000A108B10888EEC80E83E0D81EE11CF11CA3
:100C400081149104A104B10429F7FF90EF90DF9083
:100C5000CF90BF90AF909F908F9008952FB7F8944A
:100C600060919009709191098091920990919309F6
:100C70002FBF08950F931F93CF93DF93EC010E9432
:100C80002E06688779878A879B87E881F9810284A5
:100C9000F385E02DCE01199597FF15C00E942E0611
:100CA000088519852A853B85601B710B820B930B88
:100CB0000C811D812E813F81601771078207930788
:100CC00020F38FEF9FEFDF91CF911F910F91089548
:100CD0002091A2093091A3092817390771F4909146
:100CE000A0098091A109981741F0E091A009F0E0D6
:100CF000E15BF64F808190E008958FEF9FEF0895BC
:100D0000EF92FF920F931F93CF93DF93DC015C96DA
:100D1000ED90FC905D97E114F10479F481E090E0AE
:100D200013969C938E93129790E080E0DF91CF9181
:100D30001F910F91FF90EF9008955196ED91FC91C6
:100D4000529750968C915097982F90950FB75E962A
:100D50002C915E97122F127021FD6095F8942081DE
:100D6000112319F1282B2083E7012197F1F728E0BF
:100D7000462F50E0308160FF1AC0382B3083E701E6
:100D80002197F1F7BA0175956795215089F71123DD
:100D900081F08081892380830FBF5C968D919C9127
:100DA0000197F1F781E090E0C1CF2923DCCF39230F
:100DB000E5CF9081892BEFCF2091A2093091A30933
:100DC0002817390771F48091A1092091A00990E0BA
:100DD000805C9F4F821B910960E470E00E94C746CF
:100DE000089590E080E008952091A2093091A30930
:100DF00028173907B9F49091A0098091A109981793
:100E000089F0E091A009F0E0E15BF64F808120914C
:100E1000A00930E02F5F3F4F2F7333272093A009A5
:100E200090E008958FEF9FEF089520910509260F18
:100E30003327331F21323105ECF420912909FC01BD
:100E400090E080E0243069F082E00895A0910509E7
:100E50002191AC014B51574FA40FB52FB11D2C93CD
:100E60000196861798F380910509680F609305092C
:100E700080E0089581E008951092290981E080932F
:100E80002B0910922A0961E084E10E94780561E053
:100E900085E10E947805E9EBF0E080818E7F808318
:100EA00080818D7F808388E48093B80085E480937F
:100EB000BC000895CF93DF9391E09093E4088823DA
:100EC000B9F0C091B800D091BA008091BC008A7B83
:100ED0008093BC0060E084E10E94780560E085E1D9
:100EE0000E9478050E943C07D093BA00C093B800D6
:100EF000DF91CF910895E0919F0980919E09E817B5
:100F000030F4F0E0E154F74F808190E008958FEFE6
:100F10009FEF089590919F0980919E092FEF3FEFD9
:100F2000981748F4E92FF0E0E154F74F208130E0C2
:100F30009F5F90939F09C901089580919E099091A8
:100F40009F09891B990B0895CF92DF92EF92FF9230
:100F50000F931F93CF93DF937C01CB018A012091E4
:100F6000BE08222389F0EB016B01C40ED51ECC15FF
:100F7000DD0569F06991D701ED91FC910190F08157
:100F8000E02DC7011995F3CF642F0E941507C80102
:100F9000DF91CF911F910F91FF90EF90DF90CF9055
:100FA0000895CF93DF931F92CDB7DEB76983209169
:100FB000BE082223F9F020919C09203258F021E04C
:100FC00030E0FC013383228390E080E00F90DF91DA
:100FD000CF91089580919D09E82FF0E0E256F74FF8
:100FE000998190838F5F80939D0980939C0981E014
:100FF00090E0ECCF61E0CE0101960E941507F7CF9B
:10100000CF92DF92EF92FF920F931F93CF93DF93D4
:10101000FC01C48121E02093BE08C0939D0810927A
:101020009D0910929C098385682B8BE89BE00E94A8
:10103000D107D0919C09D13208F092C00E94D70507
:101040006B017C0180912909811165C082E0809348
:10105000290981E080932B098FEF80932809109252
:101060004D09D0934C09AEE9B8E0ECE2F9E080E03C
:10107000D81385C010924E0980914E09CC0FC82B11
:10108000C0934E0980912A09813009F07CC01092EA
:101090002A090E94D7056B017C0180914E0980933B
:1010A000BB008091E0089091E108A091E208B09126
:1010B000E308892B8A2B8B2B99F00E94D70500918E
:1010C000E0081091E1082091E2083091E3086C19E2
:1010D0007D098E099F090617170728073907E0F1D0
:1010E0008091BC0083FDD9CF85EC8093BC000E9429
:1010F000D7056B017C0180912909823009F445C034
:10110000809128098F3F61F180912809803241F157
:101110008091280925C08091E0089091E108A09174
:10112000E208B091E308892B8A2B8B2B09F48ACF34
:101130000E94D7050091E0081091E1082091E20893
:101140003091E3086C197D098E099F09061717076E
:101150002807390708F076CF8091DF080E945A07E8
:1011600010929D0910929C091092BE08DF91CF91B8
:101170001F910F91FF90EF90DF90CF9008959D9178
:1011800091938F5F75CF85EEB0CF8091E0089091FD
:10119000E108A091E208B091E308892B8A2B8B2B00
:1011A00009F4A9CF0E94D7050091E0081091E10849
:1011B0002091E2083091E3086C197D098E099F099E
:1011C000061717072807390708F095CFC5CFFC0188
:1011D00020812EBD9B012150310941F051810DB478
:1011E00007FEFDCF4EB55EBD4193F5CF615071094D
:1011F000860F971F0DB407FEFDCF2EB5FC0120838F
:101200000895E091E309F091E40980819091E20969
:10121000892B80830895E091E309F091E40990819E
:101220008091E20980958923808308958EBD000016
:101230000DB407FEFDCF8EB50895AF92BF92CF9249
:10124000DF92EF92FF920F931F93CF93DF9300D023
:1012500000D01F921F92CDB7DEB78C017B016A01CF
:101260008091E6098333E1F45801A40EB51EA0165F
:10127000B10609F46FC00E940B0980EF0E941609A5
:10128000812F0E941609802F0E9416090F5F1F4FA1
:10129000F70181917F010E9416090E940109E7CFA1
:1012A0005B01A40EB51E8433C1F40E940B0919839F
:1012B0000A838D2D80688B83CC8264E070E0CE0140
:1012C00001960E94E708AE14BF0409F441C0F7017B
:1012D00081917F010E941609F6CF0E940B090F3FF2
:1012E000110509F028F419820A8384E08B830CC06D
:1012F00017FD17C019820A8333E0169507953A95B2
:10130000E1F7007E0C600B8386E0C816D104A0F5DF
:10131000F701DE011496EA15FB0599F081918D9392
:10132000FACFC80126E0969587952A95E1F7807E49
:1013300019830A830115104C10F48461D7CF8C6196
:10134000D5CFB6016D5F7F4FCE0101960E94E708B1
:101350000E940109C60128960FB6F894DEBF0FBEA1
:10136000CDBFDF91CF911F910F91FF90EF90DF9054
:10137000CF90BF90AF90089563E070E0CE010196EA
:101380000E94E708F70181917F010E941609AE14BF
:10139000BF04C1F7DDCFCF93DF931F92CDB7DEB788
:1013A000898341E050E0BE016F5F7F4F90E080E0B5
:1013B0000E941D090F90DF91CF91089590E0209138
:1013C000E609233339F40C96982F990F990F990F4A
:1013D00080E008954896F8CFDA01E091E709F0E05F
:1013E000FE2FEE27E60FF71F90E0982F8827A90120
:1013F000BD018E0F9F1F0C941D09CF93DF931F9289
:101400001F92CDB7DEB779836A8322E030E0AE0168
:101410004F5F5F4F60E170E00E94EC090F900F900A
:10142000DF91CF910895CF93DF931F921F92CDB795
:10143000DEB779836A8322E030E0AE014F5F5F4F11
:1014400064E070E00E94EC090F900F90DF91CF9163
:101450000895CF93DF931F92CDB7DEB72091E709B0
:1014600030E0322F2227260F371F90E0982F882751
:10147000498341E050E0BE016F5F7F4F820F931FB1
:101480000E941D090F90DF91CF910895CF93DF93B4
:101490001F92CDB7DEB76983DC01ED91FC9102802C
:1014A000F381E02D41E050E0BE016F5F7F4F199561
:1014B0000F90DF91CF910895FC019485FB01848505
:1014C000981303C081E0983008F080E00895CF932E
:1014D000DF931F92CDB7DEB76983DC01ED91FC91FC
:1014E0000280F381E02D41E050E0BE016F5F7F4F4D
:1014F00019950F90DF91CF9108950895FF920F9362
:101500001F93CF93DF93EB01FC01178A168A2A8180
:10151000211109C02B81211106C02C81211103C08A
:101520002D81222301F141155105E9F08A01FC01C9
:10153000F08C80E591E00E944C03AE014E5F5F4F5E
:1015400024E030E06CE070E08F2D0E94EC09B801DF
:101550008F2D0E94FD0981E090E0DF91CF911F91D6
:101560000F91FF90089580E0F7CFFC018485958569
:101570000895FC0184899589089526E133E0FC01F2
:1015800031832083FB014089518962897389FC0181
:1015900042835383648375830895DC01ED91FC914C
:1015A000048CF58DE02D199490E080E0089580334F
:1015B0009CF08A3324F08F3524F08B3724F481E0BB
:1015C000089581344CF08B35D4F393ED980F81E07E
:1015D0009230B0F380E008958B32B9F7F0CFCF931B
:1015E000DF93EC018C8581110CC089859A850E945E
:1015F0003A0697FD0AC0992797FD80E08B8781E026
:101600008C878B85DF91CF9108958FEF9FEFF4CF7B
:101610001F93CF93DF93EC01162F0E94EF0A8113E3
:1016200006C01C8681E0DF91CF911F91089580E074
:10163000FACFCF93DF93EC01CE010E94EF0A8B30FB
:101640003CF489304CF4882349F081E0888710C04D
:101650008D3011F08032C9F71C86EECF888581115C
:101660000AC081E090E0C15BDF4F9983888380E00E
:10167000DF91CF91089582E090E0F5CFCF93FC0108
:10168000892B91F094819F77983029F078F49923F1
:1016900059F0963079F4C1E080819181A281B381C3
:1016A000892B8A2B8B2B39F4C0E005C09A3099F333
:1016B0009C3021F0C1E08C2FCF910895C1E020E053
:1016C00030E0A90160817181828193810E9411447F
:1016D0008111F1CFE9CF1F93CF93DF93182FEB0147
:1016E00064E170E080E090E00E94FC058EE780936A
:1016F00082088FEF8093830886E08093840810939C
:10170000850810928608D0938708C09388088FEECA
:1017100080938908C2E8D8E0699184E59CE00E9442
:10172000800688E0CA38D807B9F7DF91CF911F91BA
:101730000895FC01768765870895DC01ED91FC91A1
:10174000068CF78DE02D199591E089270895862F55
:10175000089581E08627089521E0FC018485883082
:1017600008F020E0822F0895FC0182819381009788
:10177000C1F024813581468157812417350740F017
:10178000138212820190F081E02D81E0808708951C
:10179000A9014F5F5F4F55834483820F931FFC0164
:1017A000608308959F92AF92BF92CF92DF92EF92A3
:1017B000FF920F931F93CF93DF9300D01F921F923E
:1017C000CDB7DEB78C010E94EF0AD82EF80114863F
:1017D000F12CE12C70EFC72EC8010E94EF0AF8012E
:1017E0001486D81609F4C1C0811119C0F801E15B53
:1017F000FF4F82E090E09183808380E00F900F9014
:101800000F900F900F90DF91CF911F910F91FF904C
:10181000EF90DF90CF90BF90AF909F9008958C3560
:1018200009F09EC0C8010E94EF0A8823F9F2E8E19E
:10183000F3E0853709F088C0F801148664E0962E3D
:10184000B12CA12CC8010E94EF0A882379F28134BF
:101850004CF48053803148F0F801E15BFF4F83E0A6
:1018600090E0C9CF8F7D8753F5CF54E0AA0CBB1C05
:101870005A95E1F7A82AF80114869A949110E2CFBC
:10188000C501985D8115944020F4750123E0F22292
:10189000A3CFC5019C5D8115944008F5F3E0BF22FC
:1018A000C701982F8827990F990F8A299B29B0E0A3
:1018B000A0E01196198280389105A105B10598F430
:1018C0008A835E0123E0A20EB11CF50162915F01E3
:1018D000662309F481CFC8010E94B40BF6CFC5017D
:1018E000B0E0A0E0E7CF282F2F7320682A8336E0EE
:1018F000B695A795979587953A95D1F7803291053A
:1019000038F4806C8B835E0184E0A80EB11CDDCFBF
:10191000282F2F7320682B8326E0969587952A958C
:10192000E1F78031910538F4806E8C835E01E5E04B
:10193000AE0EB11CCACF80688C83CD825E01F6E00A
:10194000AF0EB11CC2CF32969081992309F484CF97
:101950008913F9CF8181882309F47ECFF801148699
:10196000682FC8010E94B40B37CF60E0C8010E9405
:10197000B40BF80182819381892B29F4E15BFF4F3D
:1019800084E090E038CF81E039CFEF92FF920F935F
:101990001F93CF93DF93DC01ED90FC90E7012A8148
:1019A0003B81E881F981E217F30780F4B901DF0197
:1019B000EB014991BE018D010F5F1F4F5C914513F3
:1019C00018C0D8014111F4CF309759F4FC0184813B
:1019D0009581820F931FD70113969C938E93129734
:1019E000F901CF01DF91CF911F910F91FF90EF90FF
:1019F0000895FD014191DF014111FBCFD4CF4F92FA
:101A00005F926F927F928F929F92AF92BF92CF928E
:101A1000DF92EF92FF920F931F93CF93DF93EC012E
:101A20007B0188818B32C1F18D32B9F5219611E0AD
:101A3000888190ED980F9A3018F08E3209F03AC1F3
:101A400060E070E0CB01FE01219100ED020F0A3051
:101A500030F56A3929E97207820729E1920708F00F
:101A600045C0AAE0B0E09B01AC010E948645802EF3
:101A7000912CB12CA12C24013501409450946094F8
:101A80007094461657066806790680F1680D791D30
:101A90008A1D9B1DEF01D7CF219610E0C9CF2111E0
:101AA00025C0F701248120781123C1F02A60248306
:101AB0006083718382839383812FDF91CF911F9104
:101AC0000F91FF90EF90DF90CF90BF90AF909F90DD
:101AD0008F907F906F905F904F900895286024833F
:101AE000608371838283938311E0E6CF00E0EAE0B4
:101AF0008E2E912CA12CB12C61157105F0E88F0769
:101B0000910540F0A50194010E944545CA01B90123
:101B10000F5FF2CFFE01299130ED320F3A3010F411
:101B20000F5FF8CF2E32F1F4EF012196FE012196DE
:101B3000208150EDD52ED20E29E02D1598F06C3C69
:101B4000ECEC7E07ECE08E07910580F7AAE0B0E0B0
:101B50009B01AC010E9486456D0D711D811D911D7B
:101B60000150E4CF20812F7DD0E0C0E0253409F082
:101B70005DC021812D32D9F53296CC24C394DF018A
:101B8000D0E0C0E0202F002E000C330B4AE0B42E32
:101B9000FD01DD9040ED4D0D4A3008F042C0BC9E85
:101BA000A001BD9E500D1124CD2DDD0CDD0BE09765
:101BB000C40FD51FAE01420F531F4732510544F3E6
:101BC000F7018481CC20D1F040E050E060E070E883
:101BD000111103C040E050E0BA0180788C60F70139
:101BE000848340835183628373831C2D65CF2B32A2
:101BF00019F03196C12CC3CF3296FCCF40E050E0B3
:101C000060E87FEF111104C040E050E060E87FE73A
:101C100080788C60F701848340835183628373836F
:101C200063CFCC2019F0D195C195D1092081211124
:101C300041C0C00FD11D07FDDA950E9416441C1645
:101C40001D0604F500E0C0FF0CC024E0029FF00177
:101C50001124E15EFC4F25913591459154910E94EC
:101C60007744D595C7950F5F209769F71111905864
:101C7000F701248120782C60248360837183828320
:101C8000938332CFD195C195D10900E0209771F3AC
:101C9000C0FF0CC024E0029FF0011124E151FD4F70
:101CA00025913591459154910E947744D595C795DA
:101CB0000F5FECCF10E000CFCF92DF92EF92FF9258
:101CC000CF93DF9300D01F921F92CDB7DEB7DC0118
:101CD00014969C9114979F77963071F0FD01973080
:101CE00028F4943070F590E080E011C09A30D9F07B
:101CF0009C30A1F19830B9F78D919D910D90BC91D8
:101D0000A02D811520E89207A105B10560F70F907D
:101D10000F900F900F900F90DF91CF91FF90EF9069
:101D2000DF90CF90089580819181A281B38181302D
:101D300020E89207A105B105B0F69195819591092A
:101D4000E6CF808191811D82BE016F5F7F4F0E942F
:101D5000FF0CCE0101960E945C0ED9CFC080D180CD
:101D6000E280F38020E030E040E057ECC701B601AC
:101D70000E94BD4687FDB7CF20E03EEF4FEF56E40F
:101D8000C701B6010E94114418160CF4ACCFC7016C
:101D9000B6010E948746CB01BACFCF93DF93DC0117
:101DA000EB01EC81FD818A819B810896E817F90798
:101DB00040F481E08887F0E0E0E0CF01DF91CF914F
:101DC00008953897FD83EC833097B9F31296CD913F
:101DD000DC911397209791F0CF018C1B9D0B23E092
:101DE000959587952A95E1F78D831396FC93EE934D
:101DF00012971582148217821682DFCF1196FC93F8
:101E0000EE93F3CF0F931F93CF938C01C62F0E94B5
:101E100000086C2F6460C8010E9400086C2F6B7F63
:101E2000C8010E94000883EC90E00197F1F7CF9180
:101E30001F910F9108950F931F93CF93DF938C0100
:101E4000D62FC42F607F642B0E94020F80E1D89FA1
:101E5000B00111246C2BC801DF91CF911F910F911C
:101E60000C94020FCF93DF9300D000D01F921F92EB
:101E7000CDB7DEB798E0ECE4F2E0DE011196019018
:101E80000D929A95E1F790917B0C961708F46FEFFD
:101E9000262F30E0220F331F41E050E04C0F5D1F32
:101EA000240F351FF9016081680F606840E083E707
:101EB0009CE028960FB6F894DEBF0FBECDBFDF9131
:101EC000CF910C941B0F40E061E083E79CE00E94FF
:101ED0001B0F8BE39FE10197F1F7089540E062E06B
:101EE00083E79CE00E941B0F8BE39FE10197F1F7D2
:101EF0000895CF93DF93823028F09091780C98600A
:101F00009093780C80937B0C62E370E080E090E02B
:101F10000E94FC0560917E0C83E79CE00E94000813
:101F200068EE73E080E090E00E94FC0560E383E7E8
:101F30009CE00E94020FCBE4D6E4CE010197F1F7BA
:101F400060E383E79CE00E94020F2197F1F760E3D2
:101F500083E79CE00E94020F83E592E00197F1F78E
:101F600060E283E79CE00E94020F6091780C60625F
:101F700040E083E79CE00E941B0F84E08093790C93
:101F800040E06CE083E79CE00E941B0F0E94630F1F
:101F900082E080937A0C40E066E083E79CE00E9458
:101FA0001B0FDF91CF910C946E0F41E00E941B0F2D
:101FB00081E090E008950F931F93CF93DF93EC019E
:101FC0008B01CB010E94FE46080F191F009711F4E8
:101FD00010E000E09A8389839C838B831E830D83AA
:101FE00018870F8319868E8580788E87DF91CF9131
:101FF0001F910F9108958F929F92AF92BF92CF92AF
:10200000DF92EF92FF920F931F93CF93DF93FC0128
:1020100001900020E9F731978F01081B190B7C0113
:10202000D0E0C0E0A9F430E020E081E0232B09F00B
:1020300080E0DF91CF911F910F91FF90EF90DF90A3
:10204000CF90BF90AF909F908F900895C1E0D0E067
:102050008DEC9BE00E943A0697FD3AC0F701EC0F29
:10206000FD1F2081022E000C330B8217930759F1BC
:10207000209771F34F01AE012197D4012E914D01AC
:10208000022E000C330B2817390719F0209799F707
:10209000DFCF2097D9F2B7016F01CC1ADD0A30E00B
:1020A00020E0DB01AD90BD01D601BD906D01AB100C
:1020B00005C02F5F3F4F2C173D0798F3C217D3077A
:1020C000D1F6EA01C5CF21960C171D0709F6ABCF53
:1020D0002FEF3FEFAACFFB0101900020E9F73197E6
:1020E000AF01461B570BDC01ED91FC910280F3819F
:1020F000E02D19948F929F92AF92BF92EF92FF9230
:102100000F931F93CF93DF93CDB7DEB7A1970FB691
:10211000F894DEBF0FBECDBF7C01FA01CB0119A23E
:10212000223008F42AE08E010F5D1F4F822E912C81
:10213000B12CA12CBF01A50194010E944545F901D4
:10214000CA016A300CF5605DD8016E938D01232BB6
:10215000242B252B79F790E080E0109721F0BD012A
:10216000C7010E946B10A1960FB6F894DEBF0FBE98
:10217000CDBFDF91CF911F910F91FF90EF90BF9056
:10218000AF909F908F900895695CDECF8F929F9261
:10219000AF92BF92CF92DF92EF92FF920F931F9375
:1021A000CF93DF937C018B016C0182E0C80ED11CC0
:1021B0004701E5E08E0E911CD0E0C0E0F6014191B0
:1021C0006F0150E070E060E02AE0C8010E947A10E0
:1021D0005C016EE2C8010E947A038A0D9B1DC80F44
:1021E000D91FC814D90451F7F701458150E070E0B8
:1021F00060E02AE0C8010E947A108C0F9D1FDF91D9
:10220000CF911F910F91FF90EF90DF90CF90BF90F3
:10221000AF909F908F9008954F925F926F927F92B0
:102220008F929F92AF92BF92CF92DF92EF92FF92E6
:10223000CF936B017C01842EAC019B010E94C246AE
:1022400069E273E0811126C026013701E89477F82E
:102250002FEF3FEF4FE75FE7C301B2010E94C24695
:1022600081110CC02FEF3FEF4FE75FE7C301B201D1
:102270000E9411446DE273E0181664F02FEF3FEFF7
:102280004FE75FE4C701B6010E94BD4618169CF4F3
:1022900061E373E08EEE9AE0CF91FF90EF90DF90D4
:1022A000CF90BF90AF909F908F907F906F905F90F6
:1022B0004F900C946B102FEF3FEF4FE75FECC7018F
:1022C000B6010E94114487FDE3CF20E030E0A90170
:1022D000C701B6010E941144B12CA12C87FF0AC08E
:1022E0006DE28EEE9AE00E947A035C01F7FAF094B8
:1022F000F7F8F094C82D60E070E080E09FE3912C47
:1023000020E030E040E251E40E9415469394981496
:10231000B8F3A70196010E94A9452B013C010E9438
:102320008E466B017C010E9416449B01AC01C301E7
:10233000B2010E94A8452B013C012AE0B701A60189
:102340008EEE9AE00E947A107C016EE28EEE9AE0A8
:102350000E947A03E80EF91EEA0CFB1CC15028F11A
:1023600020E030E040E251E4C301B2010E94774432
:102370002B013C010E948E464B01B12CA12C2AE07E
:10238000B501A4018EEE9AE00E947A10E80EF91EC3
:10239000C501B4010E9416449B01AC01C301B20106
:1023A0000E94A8452B013C01D9CFC701CF91FF90D6
:1023B000EF90DF90CF90BF90AF909F908F907F90E5
:1023C0006F905F904F9008956EEE74E00C946B10D8
:1023D000CF93DF93BC018EEE9AE00E946B10EC016C
:1023E0008EEE9AE00E94E4118C0F9D1FDF91CF9139
:1023F00008950F931F93CF93DF93EC010E94810305
:102400008C01CE010E94E411800F911FDF91CF91CA
:102410001F910F9108950F931F93CF93DF93EC01BA
:102420000E948F038C01CE010E94E411800F911F46
:10243000DF91CF911F910F9108950C946B100F9322
:102440001F93CF93DF934115510541F0FC010481A7
:1024500015810115110539F4FB011082DF91CF912F
:102460001F910F910895415051094017510708F4E9
:102470008A01EB01FC0160817181A801CE010E94FB
:102480004349C00FD11F1882E9CFAF92BF92CF92BC
:10249000DF92EF92FF920F931F93CF93DF9300D0C1
:1024A0001F92CDB7DEB78C016B017A018091E609EE
:1024B0008333E9F45B016801C40ED51EC016D10652
:1024C000A9F10E940B098FE00E941609812F0E943A
:1024D0001609802F0E9416090F5F1F4F80E00E948F
:1024E0001609F50181935F010E940109E7CF84334A
:1024F00069F50E940B0919830A838F2D8F778B83CF
:10250000EC8264E070E0CE0101960E94E708A7012A
:1025100070E060E0C6010E942C49E114F10421F052
:10252000B701C6010E94E7080E940109C7010F9088
:102530000F900F900F90DF91CF911F910F91FF900F
:10254000EF90DF90CF90BF90AF9008950E940B095D
:102550000F3F110509F030F419820A831B8263E0F2
:1025600070E0D1CF17FD0BC019820A8333E01695B6
:1025700007953A95E1F7007E08600B83F0CFC8011C
:1025800026E0969587952A95E1F7807E19830A8340
:102590000115104C18F480618B83E1CF8861FCCF6A
:1025A000CF93DF931F92CDB7DEB72091E70930E0DC
:1025B000322F2227260F371F90E0982F882741E0DF
:1025C00050E0BE016F5F7F4F820F931F0E94451244
:1025D00089810F90DF91CF910895CF93C82F462F17
:1025E00061E070E00E94290A61E070E08C2F0E9497
:1025F000D0128111F9CFCF910895CF93C82F80E5E4
:1026000091E00E944C0368E070E08C2FCF910C9415
:10261000ED12CF93C82F80E591E00E944C0360E15A
:1026200070E08C2FCF910C94ED12CF93DF93EC01DF
:10263000888D883020F40E94091388E0888FDF910C
:10264000CF910895CF93C82F80E591E00E944C036D
:1026500063E070E08C2FCF910C94D012CF93DF9376
:10266000EC018C858830D0F40E942213843189F0EB
:10267000882379F0883169F021E08C3159F4E881C0
:10268000F9810084F185E02DCE01199521E0892B97
:1026900009F420E0822FDF91CF91089580E0FBCFF5
:1026A000CF92DF92EF92FF92CF93DF93EC018C8574
:1026B000883068F40E94FD120E942E066B017C0196
:1026C0008C850E942213811109C088E08C87DF91DC
:1026D000CF91FF90EF90DF90CF90089561E070E090
:1026E00080E090E00E94FC050E942E06AB01BC0138
:1026F0004C195D096E097F098D859E85B0E0A0E0CB
:10270000481759076A077B07D8F28C850E9409137E
:10271000DCCFCF93FC01C08D80E591E00E944C039B
:1027200060E270E08C2F0E94ED1262E070E08C2F6E
:102730000E94D01284FD16C062E070E08C2F0E94CF
:10274000D01283FF0AC048E162E070E08C2F0E9443
:10275000290A80E090E0CF91089580E591E00E9401
:102760004C03E3CF40E162E070E08C2F0E94290A25
:1027700081E0F0CFCF93DF931F92CDB7DEB741E07A
:1027800050E0BE016F5F7F4F90E080E00E944512F5
:1027900089810F90DF91CF910895CF93DF93C4E1AA
:1027A000D0E00E94BA13882361F061E070E080E01D
:1027B00090E00E94FC052197A1F780E0DF91CF9186
:1027C000089581E0FBCF1F93CF93DF931F92CDB786
:1027D000DEB7182F80E591E00E944C03812F0E9404
:1027E000DE0927E0129FF0011124E655F64F228101
:1027F0003381377041E050E0BE016F5F7F4F820F41
:10280000931F0E94451289810F90DF91CF911F91F4
:102810000895FC01808D883040F4218D328D232B6A
:1028200021F00E94E31390E008958FEF9FEF089549
:10283000CF93DF93FC012485283028F08FEF9FEFA2
:10284000DF91CF910895EC010190F081E02D00849B
:10285000F185E02D1995892B89F38C850E94E3136E
:1028600090E0EECFDA01E091E709F0E0FE2FEE27ED
:10287000E60FF71F90E0982F8827A901BD018E0F62
:102880009F1F0C9445128F929F92AF92BF92CF924E
:10289000DF92EF92FF920F931F93CF93DF93CDB709
:1028A000DEB760970FB6F894DEBF0FBECDBF7C01D8
:1028B0009091E609911115C018E0812F60960FB62E
:1028C000F894DEBF0FBECDBFDF91CF911F910F9166
:1028D000FF90EF90DF90CF90BF90AF909F908F9040
:1028E000089508E0933309F404E06B0180E591E07A
:1028F0000E944C039E012F5F3F4F5901490110E098
:1029000063E070E0812F0E94D012F40181934F01A7
:102910008823C1F01F5F0113F3CF00E0F50181911F
:102920005F018D3149F0883139F08A51823020F0D1
:102930000F5F1013F3CFC0CF60E170E0802F0E94D3
:10294000ED12102FA12EB12C83EE93E00197F1F739
:1029500042E870E060E0812F0E94290A4FEF62E0B8
:1029600070E0812F0E94290AB601C114D10491F4AC
:10297000809140029091410201968115F0EC9F07F1
:1029800008F45CC090934102809340026091400241
:1029900070914102812F0E94130A86E0E4E5F2E083
:1029A000DE01199601900D928A95E1F7F701838176
:1029B0008F778C8784818D8785818E87A7014E5F75
:1029C0005F4F24E030E06CE070E0812F0E94EC0962
:1029D000B601812F0E94FD0926E030E0AE01475F7D
:1029E0005F4F66E070E0812F0E94EC0961E070E0CB
:1029F000812F0E94ED1227E02A9DC0012B9D900D92
:102A000011249C012655364F7901F901118210825B
:102A100022E030E0AE01415F5F4F68E270E0812F5D
:102A20000E9432148F859889982789279827F70163
:102A3000938382831682158214823FCF80E090ECCC
:102A4000A1CFCF92DF92EF92FF920F931F93CF937C
:102A5000DF9300D000D0CDB7DEB78C016B017A01D7
:102A6000FC01808D883010F40E94091386E193E008
:102A70009A838983F60182819381A481B5818B83B6
:102A80009C83AD83BE83B701CE0101960E9443149F
:102A9000F801808F8830A0F4F586E486128E118EBE
:102AA00081E026960FB6F894DEBF0FBECDBFDF9152
:102AB000CF911F910F91FF90EF90DF90CF900895ED
:102AC00080E0EFCF7F928F929F92AF92BF92CF9292
:102AD000DF92EF92FF920F931F93CF93DF931F929A
:102AE0001F92CDB7DEB7782E8B014A01590122E043
:102AF00030E0AE014F5F5F4F64E270E00E9432143D
:102B0000E980FA80FE24EF24FE24E00EF11E9701F6
:102B100037704091E609072D10E0433309F042C0B9
:102B2000085F1F4F102F0027110F110F110FC90140
:102B3000800F911F4733C9F1A9014A0D5B1D413038
:102B4000584098F160E078E06B01C21AD30AA60100
:102B5000B4010E941D09A5014C195D09B4016C0D59
:102B60007D1DC8010E941D09EA0CFB1CF982EA8246
:102B700022E030E0AE014F5F5F4F64E270E0872DEE
:102B80000E94EC090F900F90DF91CF911F910F9150
:102B9000FF90EF90DF90CF90BF90AF909F908F907D
:102BA0007F900895005F1F4FBDCFA501B401DACF1C
:102BB000EF92FF921F93CF93DF931F921F92CDB797
:102BC000DEB7182F22E030E0AE014F5F5F4F60E2CA
:102BD00070E00E943214E980FA80FE24EF24FE2483
:102BE00022E030E0AE014F5F5F4F60E270E0812F86
:102BF0000E94321489819A81982789279827E8169C
:102C0000F90689F487E0189FF0011124E655F64F84
:102C1000F582E482C7010F900F90DF91CF911F9151
:102C2000FF90EF9008957C01DBCF1F93CF93DF934C
:102C3000182F80E591E00E944C03812F0E94D81547
:102C4000EC0163E070E0812F0E94D012873121F007
:102C50008C3111F0D0E0C0E0CE01DF91CF911F9117
:102C60000895CF93DF93EC018C85883060F40E9447
:102C70002213873111F08C3131F48C850E941516A6
:102C80008115984088F3DF91CF910895FC018485E8
:102C9000883010F40C94151690E080E008959F920F
:102CA000AF92BF92CF92DF92EF92FF920F931F935A
:102CB000CF93DF938C015B01942EE52EFC01C68837
:102CC000D788F08C80E591E00E944C038F2D0E9404
:102CD000D815C92DDE2D8C179D0708F4EC019E0137
:102CE000A501B6018F2D0E946215F801868997898A
:102CF0008C0F9D1F978B868BCE01DF91CF911F91FB
:102D00000F91FF90EF90DF90CF90BF90AF909F908A
:102D100008958F929F92AF92BF92CF92DF92EF92DF
:102D2000FF920F931F93CF936C015B018A01FC010B
:102D3000C485C830F0F57A014130584018F0E12CD4
:102D400088E0F82E80E591E00E944C038C2F0E94D1
:102D5000D8154C0163E070E08C2F0E94D0128731AF
:102D600011F08C3149F58E149F0460F380E591E0F9
:102D70000E944C039701A50170E060E08C2F0E9437
:102D8000621560E270E08C2F0E94ED1262E070E04C
:102D90008C2F0E94D01284FD17C063E070E08C2F4E
:102DA0000E94D01281110BC081E090E0F601938364
:102DB000828310E000E010C0F12CE12CD7CF80E539
:102DC00091E00E944C03E2CF40E162E070E08C2F82
:102DD0000E94290AEF2841F3C801CF911F910F915A
:102DE000FF90EF90DF90CF90BF90AF909F908F902B
:102DF0000895FF920F931F93CF93DF931F921F921B
:102E0000CDB7DEB7F82E22E030E0AE014F5F5F4F66
:102E100066E270E00E94321409811A8110270127AE
:102E2000102722E030E0AE014F5F5F4F66E270E0B6
:102E30008F2D0E94321489819A819827892798279B
:102E40000817190749F4C8010F900F90DF91CF912F
:102E50001F910F91FF9008958C01E3CF1F93CF93A3
:102E6000DF93182F87E0189FE0011124C655D64F35
:102E700088819981009761F480E591E00E944C037C
:102E8000812F0E94F9162E81821B910999838883D4
:102E9000DF91CF911F910895FC018485883010F453
:102EA0000C942E1790E080E008954F925F927F92ED
:102EB0008F929F92AF92BF92CF92DF92EF92FF924A
:102EC0000F931F93CF93DF931F921F92CDB7DEB75F
:102ED000782E6B014A01A82EB12C27E0829FC001F9
:102EE0001124FC01E655F64F7F010081118180E538
:102EF00091E00E944C030815190554F4872D0E9497
:102F0000F916F70126818C01021B11091183008338
:102F10000115110529F563E070E0872D0E94D0129C
:102F2000843159F0882349F001E010E08C3111F42C
:102F300010E000E0119501951109C8010F900F9064
:102F4000DF91CF911F910F91FF90EF90DF90CF9085
:102F5000BF90AF909F908F907F905F904F9008951B
:102F6000801691060CF4840187E08A9DF0018B9D08
:102F7000F00D1124E655F64FE280F380C114D10420
:102F800051F12701F7E05F22872D0E94DE09840DB1
:102F9000951D2091E609273309F453C09801240DAB
:102FA000351D2130384008F44CC020E038E049019C
:102FB00084189508A401B6010E9445122601480C08
:102FC000591C6801C818D908872D0E94DE09A6017E
:102FD000B2010E944512E00EF11E87E08A9DF001C9
:102FE0008B9DF00D1124E655F64FF382E28220818D
:102FF0003181201B310B318320838681800F912FFB
:10300000911D8A3F910510F4232BF1F487E08A9DEE
:10301000F0018B9DF00D1124E655F64F1682F982D2
:10302000EA8222E030E0AE014F5F5F4F68E270E07D
:10303000872D0E94EC0960E470E0872D0E94ED125C
:103040007CCFA801B601C5CF868377CFCF93DF931E
:10305000FC01218D328D2115310529F48FEF9FEF71
:10306000DF91CF910895EC01808D4217530708F04E
:10307000A9010E9455171816190684F7298D3A8D53
:10308000281B390B3A8F298FEBCF0F931F93CF93C8
:10309000DF931F92CDB7DEB7FC01218D328D232B3C
:1030A00041F48FEF9FEF0F90DF91CF911F910F9120
:1030B00008958C0141E050E0BE016F5F7F4FFC013D
:1030C000808D0E945517181619065CF7F801818D3E
:1030D000928D0197928F818F898190E0E4CFCF9379
:1030E000DF931F92CDB7DEB741E050E0BE016F5FC6
:1030F0007F4FFC0184850E9455171816190634F479
:10310000898190E00F90DF91CF9108958FEF9FEF2D
:10311000F9CFFC018485883010F40C94551790E0A9
:1031200080E008958F929F92AF92BF92CF92DF92EC
:10313000EF92FF920F931F93CF93DF9300D000D0B5
:1031400000D01F92CDB7DEB79091E609911115C05E
:1031500018E0812F2A960FB6F894DEBF0FBECDBFC0
:10316000DF91CF911F910F91FF90EF90DF90CF9063
:10317000BF90AF909F908F90089528E0F22E9333E8
:1031800011F494E0F92E6B01082F80E591E00E9484
:103190004C039E012F5F3F4F5901490110E063E04E
:1031A00070E0812F0E94D012F40181934F01882397
:1031B000C1F01F5FF112F3CFF12CF50191915F0186
:1031C0009D3149F0983139F09A51923020F0F394C2
:1031D0001F11F3CFBDCF60E170E08F2D0E94ED1283
:1031E0001F2DE12EF12C83EE93E00197F1F7402F94
:1031F00070E060E0812F0E94290A4FEF62E070E0EA
:10320000812F0E94290AB601CD2889F480914002BD
:103210009091410201968115F0EC9F0798F19093EF
:103220004102809340026091400270914102812FDF
:103230000E94130A61E070E0812F0E94ED1227E0E6
:103240002E9DC0012F9D900D11249C012655364FB7
:103250007901F9011182108222E030E0AE01475F6E
:103260005F4F68E270E0812F0E94321489859A8551
:10327000982789279827F7019383828316821582DE
:10328000148267CF80E090ECCACF0F931F93CF9347
:10329000DF93EC018B01888D883010F40E940913B4
:1032A000B80182E00E949218888F883050F41D8700
:1032B0000C871A8E198E81E0DF91CF911F910F91AB
:1032C000089580E0F9CFCF92DF92EF92FF921F93A3
:1032D000CF93DF93EC017B016A018C85883048F441
:1032E0000E942213882319F08C850E94FD1288E029
:1032F0008C87F70182819381A481B5810097A10514
:10330000B10551F490E080E0DF91CF911F91FF90E3
:10331000EF90DF90CF9008958F3F9F4FAF4FBF4FFB
:1033200089F370E060E081E20E949218182F8C8788
:10333000883040F780E591E00E944C03A7014E5F82
:103340005F4F24E030E06CE070E0812F0E94EC09D8
:10335000B601812F0E94FD0964E070E0812F0E9478
:10336000ED120E942E066B017C018C850E942213B7
:10337000873111F18C3101F1882321F20E942E0650
:10338000AB01BC014C195D096E097F098D859E85D5
:10339000B0E0A0E084179507A607B70738F061E012
:1033A00070E080E090E00E94FC05DFCF8C850E94F9
:1033B000091388E08C87A6CF81E090E0A5CF0F931A
:1033C0001F93CF93DF931F921F92CDB7DEB7FC01FF
:1033D00024852830E0F48C0180E591E00E944C03C4
:1033E00022E030E0AE014F5F5F4F60E170E0F80136
:1033F00084850E94321489819A8198278927982789
:103400000F900F90DF91CF911F910F91089590E051
:1034100080E0F6CF0F931F93CF93DF931F921F92FD
:10342000CDB7DEB7FC0124852830E0F48C0180E5BF
:1034300091E00E944C0322E030E0AE014F5F5F4F0D
:1034400064E070E0F80184850E94321489819A81D9
:103450009827892798270F900F90DF91CF911F9180
:103460000F91089590E080E0F6CFDC0186E193E0D3
:103470008D939D9384E0FB0101900D928A95E1F775
:103480000895EF92FF920F931F93CF93DF9300D095
:103490001F92CDB7DEB78C017B01FB01848588309C
:1034A000A8F086E193E0F801918380831282138271
:1034B00014821582C8010F900F900F900F90DF912A
:1034C000CF911F910F91FF90EF90089580E591E0CB
:1034D0000E944C0324E030E0AE014F5F5F4F6CE090
:1034E00070E0F70184850E943214BE016F5F7F4F48
:1034F000C8010E94351ADECF0F931F93CF93DF933D
:1035000000D000D01F921F92CDB7DEB78C01D8013A
:1035100059964D915C915A974115510551F0ED9195
:10352000FC91048CF58DE02D70E060E0C8011995E8
:10353000EECFF801808D0E942E17892BB1F148E063
:1035400050E0BE016F5F7F4FD80158968C910E946A
:10355000551718161906F4F4D801509684E0FE01A8
:10356000319601900D928A95E1F78D8190E0982F28
:1035700088272E81820F911DF801958B848B8F8176
:10358000282F30E0322F22278885820F932F911D1C
:10359000928F818F28960FB6F894DEBF0FBECDBFF5
:1035A000DF91CF911F910F91089590E080E0F2CFCD
:1035B0004F925F926F927F928F929F92AF92BF9243
:1035C000CF92DF92EF92FF920F931F93CF93DF93EF
:1035D000CDB7DEB763970FB6F894DEBF0FBECDBF91
:1035E0007C016B013A01FB0120E090E080E06AE0A1
:1035F0003191332309F461C040ED430F4A3008F0A4
:103600004DC0689FA001699F500D1124CA01C09749
:10361000830F911D37FD9A958F3F910549F340F334
:10362000F70142815381648175818091C30B909130
:10363000C40BA091C50BB091C60B481759076A0778
:103640007B0709F40DC28701085F1F4F0E942E06F9
:103650006F7077277C5FC8010E944519813009F09F
:1036600004C286E193E09A838983F7018281938182
:10367000A481B5818B839C83AD83BE8345E350E0F9
:10368000BE016F5F7F4FC8010E947E0A892BA9F59A
:10369000D12CC12CC8010E94151317C03E3209F06D
:1036A000BFCF233009F4BCCFD301A20FB11D1296B6
:1036B0008C932F5F90E080E09BCF233009F0B0CF58
:1036C000F3018583CC24C394D12CC60163960FB635
:1036D000F894DEBF0FBECDBFDF91CF911F910F9148
:1036E000FF90EF90DF90CF90BF90AF909F908F9022
:1036F0007F906F905F904F9008950E942E06F70183
:103700007783668342E050E0B7016A5F7F4FC8016C
:103710000E944F1681E090E09A83898342E050E056
:10372000BE016F5F7F4FC8010E944F1680E091E09D
:103730009A83898342E050E0BE016F5F7F4FC801EA
:103740000E944F161A82198242E050E0BE016F5F5C
:103750007F4FC8010E944F1642E050E0BE016F5FEC
:103760007F4FC8010E944F1642E050E0BE016F5FDC
:103770007F4FC8010E944F165601F60180818823B1
:1037800001F16501F60181912F01882311F08E323C
:10379000B1F446018A189B081814190474F48D8634
:1037A00041E050E0BE01635F7F4FC8010E944F16A9
:1037B000A401B501C8010E944F165201DECF62017B
:1037C000E1CF1D8641E050E0BE01635F7F4FC8013D
:1037D0000E944F16C12CDD24D394DA82C98242E0C4
:1037E00050E0BE016F5F7F4FC8010E944F16DA8222
:1037F000C98242E050E0BE016F5F7F4FC8010E9466
:103800004F16C8010E948913892B09F441CFF3E0B8
:10381000AF2EB12C230122E0420E511CD4C0F7017F
:103820004281538164817581808D918DA28DB38D8C
:10383000481759076A077B0709F008C1848D958DE1
:10384000C59709F003C181A192A15DEFC52EDD24CA
:10385000DA940C970CF4ADC04CE050E0BE016F5F01
:103860007F4FC8010E9426188B819C819827892749
:1038700098279A8B898BF7014681578129813A8154
:103880004217530709F0E7C097FFE5C08F709270A9
:103890003BEFC32EDD24DA94892B09F08AC06F80B8
:1038A00078847624672476242AEFC22EDD24DA94E5
:1038B0006114710409F47DC0D12CC12C8D819E81CD
:1038C000982789279827C816D906F8F441E050E0D0
:1038D000BE01635F7F4FC8010E9426184D854423B7
:1038E00031F050E070E060E0C8010E9426188D853C
:1038F0008111ECCF44E050E070E060E0C8010E942C
:103900002618FFEFCF1ADF0AD9CF912C812C41E086
:1039100050E0BE016D5E7F4FC8010E9426184B89A2
:10392000842F807C09F06CC0442331F050E070E0BB
:1039300060E0C8010E9426188B898111E8CF42E01F
:1039400050E0BE01615F7F4FC8010E94261842E02F
:1039500050E0BE01635F7F4FC8010E94261844E01B
:1039600050E070E060E0C8010E94261842E050E09C
:10397000BE016F5E7F4FC8010E9426188F8598890F
:1039800049895A898115914009F043C0CD84DE846C
:10399000DC24CD24DC2481E0C816D104D1F5411506
:1039A000544009F04AC044E050E0B201C8010E940E
:1039B000261821E0A21AB10809F46CCEFFEFCF1649
:1039C000DF0609F067CE0E942E063B014C01C801BC
:1039D0000E947C1A181619060CF421CF0E942E069C
:1039E0006619770988099909693873418105910534
:1039F00048F562E370E080E090E00E94FC05E7CFCC
:103A000041E050E070E060E0C8010E9426181B8A87
:103A100093CF54274527542770E060E0C8010E94E7
:103A20002618FFEF8F1A9F0A6814790409F06FCFE8
:103A300096EFC92EDD24DA94BCCFE7EFCE2EDD243D
:103A4000DA94B7CFCC24CA94DC2CB3CF6EEFC62E59
:103A5000DD24DA94AECF4CEFC42EDD24DA94A9CF66
:103A60008EEFC82EDD24DA9430CED12CC12C2DCE91
:103A7000CF92DF92EF92FF920F931F93CF93DF933A
:103A8000CDB7DEB7AF970FB6F894DEBF0FBECDBF90
:103A90007C016A0106E113E01A8309831C861B86F8
:103AA00088EE93E0A0E0B0E08D879E87AF87B88B6B
:103AB0008CE792E09A878987188F0F8B198E1A8E60
:103AC0001B8E1C8E88E089A31BA70AA71CA61DA617
:103AD0001EA61FA68091B70B9091B80BA091B90BB1
:103AE000B091BA0B8EA39FA3A8A7B9A78B839C8381
:103AF000AD83BE8318861F82AE01465D5F4FCE0147
:103B000001960E94D81A81309105B1F4D701ED9148
:103B1000FC910488F589E02D1DA30CA38CA59DA51F
:103B2000AEA5BFA58EA39FA3A8A7B9A7A601BE0156
:103B30006C5D7F4FC7011995AF960FB6F894DEBF45
:103B40000FBECDBFDF91CF911F910F91FF90EF90EE
:103B5000DF90CF900895CF92DF92EF92FF920F9374
:103B60001F93CF93DF93CDB7DEB7AF970FB6F8941F
:103B7000DEBF0FBECDBF8C016B017A0186E193E001
:103B80009A8389831B821C821D821E821C861B864F
:103B900048EE53E060E070E04D875E876F87788B7A
:103BA0002CE732E03A872987988F8F8B198E1A8EEF
:103BB0001B8E1C8E28E029A39BA78AA71CA61DA6E6
:103BC0001EA61FA6D8011C968C91883060F40E9416
:103BD0002213882321F0F80184850E94FD1288E0D9
:103BE000D8011C968C938091B70B9091B80BA09143
:103BF000B90BB091BA0B8EA39FA3A8A7B9A78B83CB
:103C00009C83AD83BE8318861F82AE01465D5F4FE5
:103C1000B601CE0101960E94D81A0097C1F0D801D2
:103C2000ED91FC910684F785E02D86E193E09DA35C
:103C30008CA38CA59DA5AEA5BFA58EA39FA3A8A769
:103C4000B9A7A701BE016C5D7F4FC8011995AF965A
:103C50000FB6F894DEBF0FBECDBFDF91CF911F919D
:103C60000F91FF90EF90DF90CF9008950F931F93E7
:103C7000CF93DF938B01EC012097E1F06E817F8180
:103C800060177107B9F00115110541F06115710553
:103C900029F0C8010E943349892B61F08D81882366
:103CA00039F028E08202C0011124C80FD91FE4CFE7
:103CB000D0E0C0E0CE01DF91CF911F910F91089528
:103CC0009F92AF92BF92CF92DF92EF92FF920F93AB
:103CD0001F93CF93DF93EC018B01E42E0E94190B0D
:103CE000F82E81110EC0F12C8F2DDF91CF911F91F5
:103CF0000F91FF90EF90DF90CF90BF90AF909F908B
:103D00000895CE010E94EF0A873209F415C114F517
:103D1000823209F411C1CE010E94EF0AB82E6E0161
:103D2000FFE0CF0ED11CE12C9C2CAD2C8B2D0E94E2
:103D3000D70A882309F422C18FE3E81609F41EC1CB
:103D40001C86E394F601B1926F01CE010E94EF0A46
:103D5000B82EECCF8B3509F455C08B37E1F6F8015E
:103D6000848180788062848311821082138212821F
:103D7000EE2009F452C01C86CE010E94190B882344
:103D800009F4B1CF6DE7CE010E94080B8111ACCFD1
:103D9000EA94E881F981828193819B838A8384817B
:103DA000958122813381821B930B9F838E831D8299
:103DB0001C82CE010E94EF0A873209F46EC0823263
:103DC00009F46BC0CE010E94EF0AD82E0E94D70AD8
:103DD000882309F45DC01C866D2DCE010E94B40BB2
:103DE000CE010E94EF0AD82E0E94D70A8111F3CF8C
:103DF00060E0CE010E94B40B8A819B81892B09F07F
:103E000052C027C0F8018481807880648483118245
:103E1000108213821282E11007C0C15BDF4F86E07F
:103E200090E0998388835FCF1C86CE010E94190B96
:103E3000882309F458CF6DE5CE010E94080B81114B
:103E400053CFEA946D857E85C8010E94CD0E009700
:103E500029F4C15BDF4F84E090E0E3CF4E2DBC013D
:103E6000CE010E94601E882309F43DCFCE010E943E
:103E7000190B882309F437CF6DE5CE010E94080B9A
:103E8000811132CF6CE2CE010E94080B8111DACF92
:103E9000C15BDF4F83E090E0C4CFCE010E94D20B24
:103EA000882309F420CFCE010E94190B882309F43E
:103EB0001ACF6AE3CE010E94080B882349F36A8176
:103EC0007B81F801808191810E94361EBC01892B83
:103ED00099F4CE010E94C50C6C016D857E85C801E8
:103EE0000E94CD0EFC01892B09F4B3CF8481806838
:103EF0008483D782C682BF014E2DCE010E94601EF0
:103F0000882309F4F0CECE010E94190B882309F40E
:103F1000EACE6DE7CE010E94080B8111E5CE6CE27E
:103F2000CE010E94080B882309F4B2CFCE010E9473
:103F3000190B81112ECFD7CEE881F981828193812F
:103F40009B838A838481958122813381821B930B99
:103F50009F838E831D821C82CE010E94D20BF82E7D
:103F6000882309F4C0CECE010E94C50CF80124813B
:103F700020782560248391838083B6CEFE01EE0DE8
:103F8000F11D17868F858437B1F4F801848180781C
:103F90008660848381E090E0A0E0B0E0808391833C
:103FA000A283B383F4E0EF1609F49ECEC15BDF4F2A
:103FB00082E090E036CF863659F4F801848180782B
:103FC000866084831082118212821382F5E0EBCF27
:103FD0008E3621F484E0E812E9CF86CEB801892D2F
:103FE0009A2D0E94FF0C882309F452CF7DCE0F93A7
:103FF0001F93CF93DF93CDB7DEB7C156D1090FB66C
:10400000F894DEBF0FBECDBF8C01462FFC0180812E
:10401000918193838283868197819583848310869F
:104020008585807885876C961FAF0EAF6C9788E08A
:10403000FE01E65AFF4FDE01AE5ABF4F01900D92CE
:104040008A95E1F788E0FE01EE5AFF4FDE011196F6
:1040500001900D928A95E1F719868DEC9BE09B8784
:104060008A871D861F870E8762961FAE1EAE6297D7
:10407000B801675F7F4FCE0101960E94601E629675
:104080008EAD9FAD6297009771F42C85222359F075
:10409000F8012585322F3F773C3019F02D772830F5
:1040A00011F483E090E0CF59DF4F0FB6F894DEBFF4
:1040B0000FBECDBFDF91CF911F910F910895FC01ED
:1040C000248125FF04C0808191810C94361E90E0EC
:1040D00080E00895CF93DF93EC0188819981009768
:1040E00011F00E949A47198218821D821C821B823D
:1040F0001A82DF91CF910895FC0180819181009710
:1041000011F00C949A470895CF93DF93DC01149635
:104110002D913C911597232B79F0FB01CD91DC91EA
:1041200060817181CE010E945249009729F08C1B59
:104130009D0BDF91CF9108958FEF9FEFFACF0F93F3
:104140001F93CF93DF938C01EB01FC018081918160
:104150000097E1F06881798161157105A9F04281CC
:1041600053812C813D814217530770F00E943C49D6
:104170008C819D81F801958384831D821C82DF914F
:10418000CF911F910F9108950E949A47888199813C
:10419000F801918380838A819B81938382838C81C0
:1041A0009D8195838483198218821B821A82E5CFB0
:1041B0007F928F929F92AF92BF92CF92DF92EF92B7
:1041C000FF920F931F93CF93DF93CDB7DEB7A697E0
:1041D0000FB6F894DEBF0FBECDBF8C01762E942EA5
:1041E000852E20E2A22ECE0101967C01DC01EA2D73
:1041F0001D92EA95E9F76801F3E4CF0ED11C86E140
:1042000093E09AA389A38FEF8BA38CA38DA38EA396
:1042100043E450E0BE016F5D7F4FC6010E947E0AFD
:10422000019609F4BFC081E089838A8386E0B82EB5
:10423000BB821C82D80114966D917D918D919C91C9
:1042400017970E94E3466D837E838F8398878986C4
:104250009A8680E890E09C878B874CE150E0B7011C
:10426000C6010E944F16FE0137968AE1DF011D92BA
:104270008A95E9F74801B8E08B0E911CF401D7014B
:1042800001900D92BA94E1F740E150E0B701C60108
:104290000E944F16F7011192AA94E9F796E0A92E11
:1042A000B12C40E250E0B701C6010E944F16F1E088
:1042B000AF1AB108B1F783E6898392E89A8393E550
:1042C0009B838C8385E38D8381E08E837F829DE356
:1042D000988797E099878A8786E0F401DE011B962C
:1042E00001900D928A95E1F78CE0898B8A8B65E3CA
:1042F00073E0CE0143960E943C49D8011B966C9115
:10430000CE0149960E945403F8016485CE014B9674
:104310000E945403D8011D966C91CE014D960E94C7
:1043200054034EE150E0B701C6010E944F16B3E0BE
:104330007B121EC082E3898384E08A83F80196851C
:104340009B8397859C8390899D8391899E8396E327
:104350009F838887828D8987838D8A87848D8B87C9
:10436000858D8C874CE050E0B701C6010E944F1646
:1043700087E3898386E08A8391E09B8393E09C8333
:104380008D838FE08E838AE38F838BE388878FEF23
:10439000898749E050E0B701C6010E944F16C60167
:1043A0000E948913A6960FB6F894DEBF0FBECDBF4C
:1043B000DF91CF911F910F91FF90EF90DF90CF9001
:1043C000BF90AF909F908F907F9008950F931F9311
:1043D000CF93DF93EC0188819981009759F02A816E
:1043E0003B812617370730F081E0DF91CF911F9195
:1043F0000F9108958B016F5F7F4F0E9423480097B4
:1044000059F0998388831B830A832C813D81232B58
:1044100059F7FC011082E8CF80E0E7CFEF92FF92DE
:104420000F931F93CF93DF936115710541F480E0E3
:10443000DF91CF911F910F91FF90EF90089541155B
:104440005105B1F07B01EC010C811D81040F151F9A
:10445000B8010E94E621882351F3288139818C819B
:104460009D81B701820F931F0E943C491D830C83DD
:1044700081E0DECFCF93DF93EC01FB0101900020C0
:10448000E9F73197AF01461B570B0E940E228111AD
:1044900003C0CE010E946A20CE01DF91CF91089522
:1044A000CF93DF93EC01FB014481558160817181E1
:1044B0000E940E22811103C0CE010E946A20CE010B
:1044C000DF91CF910895EF92FF920F931F93CF93B7
:1044D000DF93CDB7DEB72E970FB6F894DEBF0FBED1
:1044E000CDBF7C01CB01BA012AE08E010F5F1F4FC7
:1044F000A8010E94B343F80101900020E9F7319729
:10450000AF01401B510BB801C7010E940E222E962D
:104510000FB6F894DEBF0FBECDBFDF91CF911F91D4
:104520000F91FF90EF900895EF92FF920F931F93DA
:10453000CF93DF9300D000D01F921F92CDB7DEB78C
:104540007C01CB014AE08E010F5F1F4FB8010E9432
:10455000A843F80101900020E9F73197AF01401B13
:10456000510BB801C7010E940E2228960FB6F8948D
:10457000DEBF0FBECDBFDF91CF911F910F91FF9096
:10458000EF900895CF93DF931F921F92CDB7DEB7C0
:1045900069831A8241E050E0BE016F5F7F4F0E9445
:1045A0000E220F900F90DF91CF910895CF93DF935C
:1045B000EC01EAA1FBA1E80FF91F1282BC016E5FBA
:1045C0007F4F61F0FB0101900020E9F73197AF01C7
:1045D000461B570B888199810E940E221BA21AA2AA
:1045E000DF91CF910895CF93DF93EC018AA19BA136
:1045F0009C012F5F3F4F3BA32AA3FE01E80FF91F49
:1046000062830296809718F0CE010E94D6228CA178
:104610009DA101969DA38CA3DF91CF910895EF9268
:10462000FF920F931F93CF93DF93EC017B0162E224
:104630000E94F3228701F80161918F01662391F0B6
:10464000E8E1F3E0F280FF2049F0329681816813BF
:10465000F9CF6CE5CE010E94F3226F2DCE010E94AE
:10466000F322E9CF62E2CE01DF91CF911F910F914A
:10467000FF90EF900C94F322CF92DF92EF92FF9293
:104680000F931F93CF93DF93EC016A018B017B01A2
:10469000E40EF51E0E151F05A9F0F80121918F01FA
:1046A0008AA19BA1AC014F5F5F4F5BA34AA3FE01B0
:1046B000E80FF91F22830296809760F3CE010E94D3
:1046C000D622E8CF4CA15DA14C0D5D1D5DA34CA38E
:1046D000DF91CF911F910F91FF90EF90DF90CF90DE
:1046E0000895EF92FF920F931F93CF93DF93CDB76F
:1046F000DEB766970FB6F894DEBF0FBECDBF8C0154
:10470000CB01FE0177969F014AE0E42EF12CB70120
:104710000E94C746805D8293CB010097C1F7A90133
:104720004E1B5F0BBF01C8010E943C2366960FB66B
:10473000F894DEBF0FBECDBFDF91CF911F910F91D7
:10474000FF90EF9008958F929F92AF92BF92CF9279
:10475000DF92EF92FF920F931F93CF93DF93CDB72A
:10476000DEB766970FB6F894DEBF0FBECDBF6C0103
:104770008E01095E1F4F78018AE0882E912CA12CB2
:10478000B12CCB01BA01A50194010E944545942F9B
:10479000852F605DF80162938F01A901692F782F41
:1047A000411551056105710561F7A7014E1B5F0BAE
:1047B000BF01C6010E943C2366960FB6F894DEBF87
:1047C0000FBECDBFDF91CF911F910F91FF90EF9062
:1047D000DF90CF90BF90AF909F908F900895FB0196
:1047E00001900020E9F73197AF01461B570B0C945D
:1047F0003C232F923F924F925F926F927F928F92C3
:104800009F92AF92BF92CF92DF92EF92FF920F935F
:104810001F93CF93DF93CDB7DEB766970FB6F894AB
:10482000DEBF0FBECDBF8C011B01DC0114968C9145
:1048300014978F77863009F470C278F48230B0F024
:10484000843008F051C212964D915C9113976D918E
:104850007C91C1010E943C2316C28C30B1F160F4FE
:10486000883009F455C28A3009F444C26CE373E01D
:10487000C1010E94EF2307C2803209F408C28034CC
:10488000A9F76BE5C1010E94F322F80100811181B3
:104890000115110509F4F3C1B101C8010E94F92302
:1048A000D80115968C91882309F4E9C1B8E08B02F0
:1048B000C0011124080F191F0115110509F4DFC1EA
:1048C0006CE2C1010E94F322E3CFF801C080D180E5
:1048D000E280F380A7019601C701B6010E9411444E
:1048E000882331F06CE373E0C1010E94EF239FC184
:1048F00020E030E0A901C701B6010E9411448823DD
:1049000071F0A7019601C701B6010E94A9459B015C
:10491000AC01C701B6010E941144882319F320E0BD
:1049200030E0A901C701B6010E94114487FF08C009
:104930006DE2C1010E94F322F7FAF094F7F8F094C7
:1049400020E836E948E15BE4C701B6010E94BD46B4
:1049500087FD81C064E1A62EB12C00E210E01A8A26
:10496000198AF501E15EFC4F2591359145915491ED
:10497000C701B6010E94BD4687FD13C0F501E15194
:10498000FD4F2591359145915491C701B6010E9483
:1049900077446B017C0129893A89200F311F3A8BBA
:1049A000298B1595079534E0A31AB1088CEFA8164A
:1049B0008FEFB806B1F655245A9420E030E0A901F3
:1049C000C701B6010E94BD4618160CF04BC02CEA78
:1049D00035EC47E257E3C701B6010E9411441816AF
:1049E0000CF440C0A52DB4E0AB02C0011124B12CE1
:1049F000A12CFC01E95FFC4F3F019C01215E3C4F73
:104A000049013FEF531671F1F301EA0DFB1D65916A
:104A1000759185919491A70196010E94BD46181643
:104A20009CF4F401EA0DFB1D2591359145915491BB
:104A3000C701B6010E9477446B017C0189899A897C
:104A4000801B910B9A8B898B159507955A9494E04E
:104A5000A91AB108D6CF00E210E045E0542E1A8A18
:104A6000198AABCFC701B6010E948E464B015C018B
:104A70002B013C0106E080E492E4AFE0B0E08B8BD8
:104A80009C8BAD8BBE8B102F01509AE049165104C0
:104A900061047104C8F06B897C898D899E892AE044
:104AA00030E040E050E00E9445452B8B3C8B4D8B25
:104AB0005E8BC301B2012AE030E040E050E00E948A
:104AC000454529013A01DFCFC501B4010E941644D2
:104AD0009B01AC01C701B6010E94A8456B017C0196
:104AE0006B897C898D899E890E9416449B01AC014B
:104AF000C701B6010E9477442B013C010E948E46FB
:104B00006B017C010E9416449B01AC01C301B20100
:104B10000E94A8459B01AC010E94A9450E948E46B7
:104B2000C60ED71EE81EF91E8B899C89AD89BE89E9
:104B3000C816D906EA06FB06D8F09FEF891A990A2B
:104B4000A90AB90AA989BA89AB2B39F1BAE08B163F
:104B50009104A104B10408F1E989FA893196FA8B2C
:104B6000E98BC12CD12C7601812C912C540183949A
:104B70009AE0492E512C612C712CC701B601A3017A
:104B800092010E944545672B682B692B51F4111641
:104B900044F469017A011150F0CFC12CD12C760177
:104BA000E7CFB501A401C1010E94A323112371F134
:104BB0004E01F1E18F0E911C012F54018AE0482E25
:104BC000512C612C712C015068F0C701B601A30172
:104BD00092010E944545605DD4016E934D016901CB
:104BE0007A01F1CF812F90E0BC0160957095F501BD
:104BF000E81BF90B31978EE2808344275527461B2B
:104C0000570B6A0D7B1DC1010E943C23E989FA897B
:104C1000F7FF2AC061E473E0C1010E94EF236989B4
:104C20007A89719561957109C1010E947123D10141
:104C300094968D919C9166960FB6F894DEBF0FBE48
:104C4000CDBFDF91CF911F910F91FF90EF90DF903B
:104C5000CF90BF90AF909F908F907F906F905F901C
:104C60004F903F902F90089529893A89232BF9F28C
:104C700065E6C1010E94F32269897A89D5CF6DE585
:104C8000C1010E94F322F10184A195A1D4CF6BE769
:104C9000C1010E94F322D8010D911C91011511054B
:104CA00009F1F80166817781C1010E940F236AE34F
:104CB000C1010E94F322B101C8010E94F923D80169
:104CC00015968C91882371F0B8E08B02C0011124F5
:104CD000080F191F0115110529F06CE2C1010E948E
:104CE000F322DCCF6DE7CCCF6D917C91C1010E94A6
:104CF0000F23C9CFCD90DD90ED90FC906DE2C10106
:104D00000E94F322B701A601C1010E94A323BBCFD9
:104D10004D915D916D917C91F7CFF80180819181EA
:104D2000A281B38164E473E0892B8A2B8B2B09F079
:104D3000DBCD69E473E0D8CD6115710551F0FB015D
:104D400001900020E9F73197AF01461B570B0C94F7
:104D50000E2280E00895EF92FF920F931F93CF935E
:104D6000DF93EC017B018A01BA010E94E6218111E7
:104D70000BC0CE010E946A20CE01DF91CF911F911E
:104D80000F91FF90EF9008951D830C83B7018881E8
:104D900099810E943C49F0CFFB01DC0111961C92E5
:104DA0001E9213961C921E92129715961C921E929A
:104DB00014978617970749F0608171816115710515
:104DC00021F0448155810C94AB260895FC01118299
:104DD000108213821282158214826115710551F0BE
:104DE000FB0101900020E9F73197AF01461B570BFB
:104DF0000C94AB260895AF92BF92CF92DF92EF92C0
:104E0000FF920F931F93CF93DF937C016B015A01A5
:104E100089012417350720F48B2D5901042F182FF1
:104E200068E273E0C7010E94E626D6011496CD9190
:104E3000DC91AC16BD0620F50C171D0708F4E8013F
:104E4000D601ED91FC911197EC0FFD1F108110829E
:104E50006D917C916A0D7B1D61157105E9F0FB0177
:104E600001900020E9F73197AF01461B570BC701AE
:104E70000E94AB26F60180819181C80FD91F18834B
:104E8000C701DF91CF911F910F91FF90EF90DF90BD
:104E9000CF90BF90AF900895C7010E946A20EACFDB
:104EA000CF92DF92EF92FF920F931F93CF93DF93F6
:104EB000CDB7DEB7CE5BD1090FB6F894DEBF0FBE1B
:104EC000CDBF8C017B0161157105F9F0FB01848177
:104ED0008F7784508230C8F46081718161157105CB
:104EE000A1F0C8010E94E626C801C254DF4F0FB6E8
:104EF000F894DEBF0FBECDBFDF91CF911F910F9110
:104F0000FF90EF90DF90CF9008956E01F9EBCF0EF8
:104F1000D11C68E273E0C6010E94E626CB56DF4F43
:104F2000D982C882C559D040C954DF4F198218822E
:104F3000C75BD04084E2FE01EB56FF4FDE01AF5865
:104F4000BF4F01900D928A95E1F784E2FE01EF5880
:104F5000FF4FDE01A35BBF4F01900D928A95E1F7F1
:104F600084E2FE01E35BFF4FDE01999601900D9212
:104F70008A95E1F784E2FE01B996DE01119601906F
:104F80000D928A95E1F71EA21DA2CE0189960E947C
:104F9000D622CE01835B9F4F0E94D622E114F104FA
:104FA00019F1BE016F5F7F4FC7010E94F923CE0147
:104FB00001960E94D622CE018F589F4F0E94D62282
:104FC000CE018B569F4F0E94D622F801118210828B
:104FD0001382128215821482B601C8010E949F209A
:104FE000C6010E947C2080CF6CE373E0CE01019665
:104FF0000E94EF23DCCFCF92DF92EF92FF920F93CC
:105000001F93CF93DF93CDB7DEB72C970FB6F894ED
:10501000DEBF0FBECDBFBC01CE0101960E94CC26E3
:1050200068E273E0CE0107960E94E62610E000E0F9
:1050300098E6C92E92E0D92E78018D819E810817BD
:105040001907F0F40F5F1F4FB801CE0101960E94BF
:105050006803E0E6F2E090E02191281301C091E0BE
:10506000CE16DF06C9F79111E7CFB701CE01019641
:105070000E946803682FCE0107960E94C222DCCFEF
:10508000CE0101960E947C2010E000E08B859C857B
:105090000817190768F580E6C82E82E0D82EF12C93
:1050A000B801CE0107960E946803F60191916F0145
:1050B00098131CC06F2D83E79CE00E94D50F81E000
:1050C000F7E0FF120DC081110EC0B801CE010796A6
:1050D0000E946803682F83E79CE00E947A0303C064
:1050E000F3948823E9F20F5F1F4FD0CF80E0E8CF21
:1050F000CE0107960E947C202C960FB6F894DEBF56
:105100000FBECDBFDF91CF911F910F91FF90EF9018
:10511000DF90CF900895EF92FF920F931F93CF935C
:10512000DF93CDB7DEB72C970FB6F894DEBF0FBE76
:10513000CDBF8C010E94630F0E946E0FF801848125
:105140009581B801419708F45DC0CE0107960E9491
:10515000CC26EB84FC840FE010E0F194E194F1089C
:105160000E151F05F4F10E94630F81E59AE00E947D
:105170001104892BB1F517FD1CC060E0802F0E943F
:10518000320FBE01695F7F4FCE0101960E94CC268F
:10519000CE0101960E94FB27CE0101960E947C2041
:1051A00064EF71E080E090E00E94FC05015011097D
:1051B000D7CF4B855C854115510519F38F819885B3
:1051C000415051095C874B87BC016F5F7F4F0E9444
:1051D0004349EF81F8858B859C85E80FF91F108284
:1051E000D0CFCE0107960E947C202C960FB6F89463
:1051F000DEBF0FBECDBFDF91CF911F910F91FF900A
:10520000EF900895CE0101960E94CC26CE01019622
:105210000E94FB27CE010196E6CF85ED8093BC006E
:105220008091E0089091E108A091E208B091E30834
:105230000796A11DB11D23E0B695A7959795879573
:105240002A95D1F72091BC0024FD03C010922909B2
:1052500008954091E0085091E1086091E208709152
:10526000E308452B462B472B69F30097A105B105B1
:1052700041F025E32A95F1F700000197A109B10952
:10528000E1CF8091DF080C945A073F924F925F92D2
:105290006F927F928F929F92AF92BF92CF92DF9246
:1052A000EF92FF920F931F93CF93DF93CDB7DEB7AB
:1052B000EA970FB6F894DEBF0FBECDBF7C012A017E
:1052C0003B0169010E942E064B015C0187010D5BC9
:1052D0001F4FC8010E947C1A181619069CF00E94E4
:1052E0002E06681979098A099B0946165706680629
:1052F000790608F466C162E370E080E090E00E9405
:10530000FC05E7CF42E250E0BE016F5F7F4FC8016E
:105310000E94261889818230D1F0312C832DEA96A3
:105320000FB6F894DEBF0FBECDBFDF91CF911F91B6
:105330000F91FF90EF90DF90CF90BF90AF909F9034
:105340008F907F906F905F904F903F900895F801FD
:10535000848995898334910501F76D817E818F81E0
:1053600098850E94E3464B015C01F60180829182A0
:10537000A282B38246E050E0B701685F7F4FCE0162
:105380004D960E940449892B41F6F7018081918155
:10539000A281B38188169906AA06BB0608F4BDCF80
:1053A00084819581A681B78188159905AA05BB05D9
:1053B00008F4B3CF89899A89AB89BC898687978796
:1053C000A08BB18B4EEC50E070E060E0C8010E9411
:1053D0002618312CC701829698AB8FA7F701B69695
:1053E000FAABE9AB08969CAB8BAB67019AE1C90EAF
:1053F000D11CBD96FEABEDABC701429698AF8FAB0B
:10540000FD97FAAFE9AF4701FEE18F0E911CF8015D
:10541000818D928D181619060CF080CFC8010E945C
:1054200045188333910509F4B2C014F58130910514
:1054300009F464C044F4892B51F3C8010E94451853
:10544000AC01552775C08330910509F462C00697F9
:10545000A1F7C8010E944518B82E44E050E0B401FD
:10546000C8010E942618EB2DE450FF0BAF0160C06D
:105470008A33910509F45FC084F585339105B1F154
:10548000C697D9F6C8010E9445185C01B601CE0145
:1054900089960E94351A8BA59CA5ADA5BEA5892B22
:1054A0008A2B8B2BB1F0EDA9FEA940805180628040
:1054B0007380B601CE0183960E94351A8DA19EA1FC
:1054C000AFA1B8A5A501481659066A067B0609F0E2
:1054D000B8CF44E050E0B60118C08B33910509F411
:1054E00040C08F3F910509F492CFA7CFC8010E9419
:1054F0004518C8010E944518382E89CFC8010E945E
:10550000451844E050E06FA978ADC8010E94261804
:105510007ECFC8010E944518B82E44E050E069AD26
:105520007AADC8010E9426188B2D8450990BAC01CE
:1055300070E060E0EACFC8010E94451844E050E006
:1055400069A97AA9C8010E942618F70166A177A166
:1055500080A591A50E94E34666A377A380A791A7A3
:1055600056CFC8010E94451844E050E06BA97CA9C1
:10557000C8010E942618F70162A573A584A595A508
:105580000E94E34662A773A784A795A740CFC801EE
:105590000E94451844E050E06FA578A9C8010E9418
:1055A0002618F70162A173A184A195A10E94E34688
:1055B00062A373A384A395A366A777A780AB91ABDF
:1055C00026CF33243A94AACE2F923F924F925F92E5
:1055D0006F927F928F929F92AF92BF92CF92DF9203
:1055E000EF92FF920F931F93CF93DF9300D000D0E1
:1055F00000D01F92CDB7DEB77C018091490A81119E
:105600002AC01092310A1092300A88EE93E0A0E08E
:10561000B0E08093320A9093330AA093340AB09397
:10562000350A8CE792E090932F0A80932E0A86E148
:1056300093E090933D0A80933C0A10923E0A1092A8
:105640003F0A1092400A1092410A88E08093460A6D
:1056500081E08093490A8BEE99E09093EA09809368
:10566000E9098091E80981119BC060E372E080E064
:1056700090E00E94FC051FB7F8948091E509811124
:1056800027C0E6E8F5E08491ECECF5E09491E82F92
:10569000F0E0EE0FFF1FED5FFA4FA591B491EC9192
:1056A000E92321F461E085E30E94780561E085E368
:1056B0000E94A6058CB580618CBD8CB580648CBDC4
:1056C00061E084E30E94A60561E083E30E94A605F1
:1056D0008091E5098F5F8093E5091FBFEBE5F5E059
:1056E000E491F0E0EE0FFF1FE95CFA4F8591949191
:1056F0009093E4098093E309E1EAF5E0E491E09313
:10570000E20961E08AE00E94A6050E94010980E5A5
:1057100091E00E944C0384E38093E60980E80E94B4
:10572000CB090E94CD13882309F47BC188E00E9435
:10573000CB090E94BA13883009F073C180E10E943E
:10574000CB090E94BA13803109F06BC180E00E943E
:10575000CB090E94BA13182F811163C141E050E0B8
:10576000BE016F5F7F4F8FE190E00E9445128981FB
:10577000833009F056C180E48093E70942E06EE18E
:1057800070E0812F0E94290A42E06FE170E0812FD2
:105790000E94290A1F5F183089F781E08093E80989
:1057A00080E591E00E944C0346E050E0B70189E0BB
:1057B00090E00E941D0986E193E09A8389831B8211
:1057C0001C821D821E8244E050E0BE016D5F7F4F4F
:1057D0008FE090E00E941D090091E9091091EA090B
:1057E000D80192961D921D921D921C929597F801D8
:1057F00016A217A210A611A69A961D921D921D928E
:105800001C929D9780E69AEEA0E0B0E086AB97AB45
:10581000A0AFB1AF80EA9FE0A0E0B0E082AF93AF6D
:10582000A4AFB5AFD801189686E0FD01982F11926C
:105830009A95E9F79801225F3F4F94E1F90111929F
:105840009A95E9F7F70101900D928A95E1F74801E1
:10585000F2E48F0E911CD4011C920E9419422FEC8D
:1058600037E040E050E00E946745DC01CB01019643
:10587000A11DB11DF80184839583A683B78380831E
:105880009183A283B383C8018D5B9F4F9A878987D9
:105890000E94151364E470E089859A850E94451979
:1058A000882309F427C10E942E062B013C0148EEF3
:1058B000A42E43E0B42EC12CD12C52E0252EF12C85
:1058C000E12CD4018C918330B1F181112FC1F80109
:1058D00084819581A681B7810196A11DB11D848324
:1058E0009583A683B7830E942E06641975098609DD
:1058F0009709A60195010E944545A90161E0C801EB
:105900000E94D82081E0D4018C93F1E0EF16F104DD
:10591000C1F20E942E066419750986099709D801FB
:10592000D6962D913D914D915C91D99726173707C9
:105930004807590720F689859A850E941513F801B2
:1059400084819581A681B7810196A11DB11D8483B3
:105950009583A683B7830E942E06F801FE96608386
:10596000718382839383F1E0EF16F10409F0C2C0E2
:1059700080E591E00E944C030091E9091091EA0949
:10598000B801625F7F4FCE0101960E94351A44E054
:1059900050E0BE016D5F7F4F8FE090E00E941D09D7
:1059A000B8016A5E7F4FCE0101960E94351A44E02D
:1059B00050E0BE016D5F7F4F81E090E00E941D09C5
:1059C000B8016E5E7F4FCE0101960E94351A44E009
:1059D00050E0BE016D5F7F4F85E090E00E941D09A1
:1059E000B801625E7F4FCE0101960E94351A8B810D
:1059F0009C81AD81BE818093B70B9093B80BA0932F
:105A0000B90BB093BA0B0E94D7057F738091400207
:105A10009091410268277927709341026093400278
:105A20006BC087E38093E60980E80E94CB090E945F
:105A3000CD13882329F188E00E94CB090E94BA1374
:105A40008830F1F480E10E94CB090E94BA13182F2C
:105A50008031B1F480E00E94CB090E94BA13811119
:105A60000FC041E050E0BE016F5F7F4F89E390E0DF
:105A70000E9445128981843019F41093E7098DCE74
:105A800083E38093E60980E80E94CB090E94CD134E
:105A9000882371F180E10E94CB090E94BA13803102
:105AA00039F582E10E94CB090E94BA13823101F5D7
:105AB00080E00E94CB090E94BA13811119C084E0D2
:105AC0008093E70915E5188741E050E0BE01685F63
:105AD0007F4F8BE190E00E941D091F8341E050E061
