:100000000C9471020C94A2020C94A2020C94A20211
:100010000C94A2020C94A2020C94A2020C94A202D0
:100020000C94A2020C94A2020C94A2020C94A202C0
:100030000C94A2020C94A2020C94A2020C94A202B0
:100040000C94A2020C94A2020C94A2020C94A202A0
:100050000C94A2020C94A2020C94A2020C94992A71
:100060000C94A2020C94632A0C94392A0C94A202D8
:100070000C94A2020C94A2020C94A2020C94A20270
:100080000C94A2020C94A2020C94A2020C94A20260
:100090000C94032A0C94D9290C94A2020C94E32A00
:1000A0000C94A2020C94A2020C94A2020C94A20240
:1000B0000C94A2020C94A2020C94A2020C94A20230
:1000C0000C94A2020C94A2020C94A2020C94A20220
:1000D0000C94A2020C94A2020C94A2020C94A20210
:1000E0000C94A2020C9405030C94B0040C94120F0F
:1000F0000C94DB040C9401050C949F030C94EF0406
:100100000C9453140C94DF080C94D2020C94E50464
:100110000C9420060C9401090C94C2040C94FC0964
:100120000C94ED0F0C9491030C94EE150C94072C89
:100130000C94EA080C94E1030C9427060C949A356D
:100140000C946D140C94CA040C9415120C94F704BE
:100150000C941C190C94FC0F0C94340F0C94F209A1
:100160000C946D0F0C94FD0D0C940D060C94AB04C7
:100170000C9429140C9441030C947D030C94FE05FB
:100180000C9450090C9406030C9405110C9454061D
:100190000C94E1040C942E040C9429150C946D120B
:1001A0000C9440090C94010A0C9460160C94F3040E
:1001B0000C940A140C94F90E0C94C6040C940403C9
:1001C0000C94CE040C9425160C94E9040C94380974
:1001D0000C9433120C94F01C0C94C3150C94570916
:1001E0000C94D7040C94D1040C943C090C942A125E
:1001F0000C9430130C94CE020C94FD040C94EE0974
:100200000C9447150C94FE090C948F190C946E03F2
:100210000C94C908546F6F44656570004E6F745339
:100220007570706F72746564004E6F4D656D6F729E
:100230007900496E76616C6964496E707574004925
:100240006E636F6D706C657465496E707574004592
:100250006D707479496E707574004F6B00CDCCCCA5
:100260003D0AD7233C17B7D13877CC2B329595E68A
:10027000241FB14F0A0000803FCDCCCC3D6F1283CC
:100280003A95BFD6337D1D9026B3CE010C000020D9
:10029000410000C84200401C4620BCBE4CCA1B0E98
:1002A0005AAEC59D7400000A0B02090C0D0E08071A
:1002B0000304010000000000000000000000000036
:1002C000000000000000000000000000000000002E
:1002D00000121110000000000000000000000000EB
:1002E00000000000000000000000005A024F023F22
:1002F00002320229021C021402646573657269618C
:100300006C697A654A736F6E2829206661696C652D
:10031000643A2000496E76616C696420726573707E
:100320006F6E736500556E657870656374656420E3
:10033000726573706F6E73653A20004661696C6513
:100340006420746F2073656E6420726571756573C7
:100350007400436F6E6E656374696F6E3A20636CF0
:100360006F736500436F6E6E65637465642100434F
:100370006F6E6E656374696F6E206661696C65642B
:1003800000436F6E6E656374696E672E2E2E004695
:1003900061696C656420746F20636F6E6669677550
:1003A00072652045746865726E6574004661696C9B
:1003B000656420746F2073656E6420726571756565
:1003C000737400436F6E6E656374696F6E3A206379
:1003D0006C6F736500436F6E6E65637465642100B6
:1003E000436F6E6E656374696F6E206661696C65DC
:1003F0006400436F6E6E656374696E672E2E2E0007
:100400004661696C656420746F20636F6E6669670E
:100410007572652045746865726E6574000000220F
:1004200000250028002B002E0031003400020100BE
:1004300000050108010B0100002100240027002A0B
:10044000002D003000330001010000040107010A03
:100450000105050505070508080808020202020A49
:100460000A08080404040401010101010101010357
:1004700003030303030303040707070C0C0C0C0C12
:100480000C0C0C0202020206060606060606060B05
:100490000B0B0B0B0B0B0B0102102020080810207C
:1004A0004010204080020102010804020101020400
:1004B00008102040808040201008040201800402BF
:1004C0000180402010080402010804020101020416
:1004D0000810204080010204081020408000072CF2
:1004E0009A3511241FBECFEFD1E2DEBFCDBF00E0B1
:1004F0000CBF15E0A0E0B2E0EEECFAE700E00BBFC5
:1005000002C007900D92A635B107D9F728E0A6E5FD
:10051000B5E001C01D92AC3AB207E1F712E0C0E7C6
:10052000D2E000E006C021970109802FFE010E9461
:10053000C43ACF36D10780E00807A9F70E944A2DB8
:100540000C94553D0C940000FC01A089B18982E017
:100550008C93A485B5851C92A685B7858FEC8C936A
:10056000108EA489B58986E08C93A289B3898C9179
:1005700080618C93A289B3898C9188608C93A289C5
:10058000B3898C9180688C930288F389E02D8081F7
:100590008F7D808308958CBD9DBD0895FC01818D64
:1005A000928D0895089520E3FC0120833296862FD2
:1005B00082958F706F706A3030F4605D6293682F3F
:1005C0008111F5CF0895695CF9CF90E0FC01E956FF
:1005D000FB4F24918F5A9B4FFC018491882399F003
:1005E00090E0880F991FFC01E95CFB4FA591B49145
:1005F000FC01E35EFB4F859194918FB7F894EC91E9
:10060000E22BEC938FBF08950895089508950895FF
:10061000DC01ED91FC910190F081E02D1994DB015A
:1006200014964D915C9115976D917C91DC01ED9143
:10063000FC910280F381E02D1994EF92FF920F93C9
:100640001F93CF93DF938C017B01D0E0C0E0F701D3
:10065000EC0FFD1F6491662361F0D801ED91FC91D0
:100660000190F081E02DC8011995892B11F0219698
:10067000EECFCE01DF91CF911F910F91FF90EF90C0
:100680000895AF92BF92CF92DF92EF92FF920F93B5
:100690001F93CF93DF936C017B018B01040F151F18
:1006A000EB015E01AE18BF08C017D10759F0699180
:1006B000D601ED91FC910190F081E02DC6011995D4
:1006C000892B79F7C501DF91CF911F910F91FF9091
:1006D000EF90DF90CF90BF90AF900895FC01538DC5
:1006E000448D252F30E0842F90E0821B930B54170C
:1006F00010F0CF96089501970895FC01918D828D99
:10070000981761F0A28DAE0FBF2FB11D5D968C9131
:10071000928D9F5F9F73928F90E008958FEF9FEF70
:100720000895FC01918D828D981731F0828DE80F2C
:10073000F11D858D90E008958FEF9FEF0895FC01E6
:10074000918D228D892F90E0805C9F4F821B9109B3
:100750008F739927089583ED96E00E949F0321E00F
:10076000892B09F420E0822F089580E797E00E940A
:100770009F0321E0892B09F420E0822F0895FC01DA
:10078000A48DA80FB92FB11DA35ABF4F2C91848DF2
:1007900090E001968F739927848FA689B7892C934F
:1007A000A089B1898C91837080648C93938D848DA2
:1007B000981306C00288F389E02D80818F7D8083A5
:1007C0000895EF92FF920F931F93CF93DF93EC0165
:1007D00081E0888F9B8D8C8D98131AC0E889F989E8
:1007E000808185FF15C09FB7F894EE89FF896083EB
:1007F000E889F98980818370806480839FBF81E06C
:1008000090E0DF91CF911F910F91FF90EF900895AD
:10081000F62E0B8D10E00F5F1F4F0F731127E02E88
:100820008C8D8E110CC00FB607FCFACFE889F989C0
:10083000808185FFF5CFCE010E94BF03F1CFEB8D04
:10084000EC0FFD2FF11DE35AFF4FF0829FB7F89494
:100850000B8FEA89FB8980818062CFCFCF93DF93B2
:10086000EC01888D8823B9F0AA89BB89E889F989C8
:100870008C9185FD03C0808186FD0DC00FB607FCFD
:10088000F7CF8C9185FFF2CF808185FFEDCFCE0130
:100890000E94BF03E9CFDF91CF91089580E090E0FF
:1008A000892B29F00E94B50381110E94000080E08D
:1008B00090E0892B29F00E94AB0381110E94000077
:1008C00080E090E0892B49F080E090E0892B29F0CE
:1008D0000E94000081110E94000080E090E0892BBE
:1008E00049F080E090E0892B29F00E9400008111FE
:1008F0000C9400000895282F30E0F901EB55FD4FCE
:100900009491F901E956FB4F44912F5A3B4FF9015D
:100910002491222309F435C0992311F19150923189
:10092000F8F4E92FF0E08827E756FB4F8F4F0C943F
:10093000C43ACA04CE04AB04C204C604B004D10451
:10094000D704DB04E104E504E904EF04F304B00494
:10095000F704FD040105809180008F77809380006B
:10096000E22FF0E0EE0FFF1FE35EFB4FA591B49185
:100970008FB7F894EC91611148C040954E234C9389
:100980008FBF0895809180008F7DE8CF8091800097
:10099000877FE4CF84B58F7784BDE2CF84B58F7D28
:1009A000FBCF8091B0008F778093B000D9CF80913A
:1009B000B0008F7DF9CF809190008F778093900069
:1009C000CFCF809190008F7DF9CF80919000877F6D
:1009D000F5CF8091A0008F778093A000C1CF809148
:1009E000A0008F7DF9CF8091A000877FF5CF809107
:1009F00020018F7780932001B3CF809120018F7DDC
:100A0000F9CF80912001877FF5CF4E2BB8CF3FB72C
:100A1000F89480910D0690910E06A0910F06B0916A
:100A2000100626B5A89B05C02F3F19F00196A11D01
:100A3000B11D3FBFBA2FA92F982F8827BC01CD0128
:100A4000620F711D811D911D42E0660F771F881F87
:100A5000991F4A95D1F708958F929F92AF92BF92B6
:100A6000CF92DF92EF92FF924B015C010E9407054B
:100A70006B017C010E9407056C197D098E099F0995
:100A8000683E734081059105A8F321E0821A910820
:100A9000A108B10888EEC80E83E0D81EE11CF11C45
:100AA00081149104A104B10429F7FF90EF90DF9025
:100AB000CF90BF90AF909F908F9008952FB7F894EC
:100AC0006091090670910A0680910B0690910C06C0
:100AD0002FBF08950F931F93CF93DF93EC010E94D4
:100AE0005E05688779878A879B87E881F981028418
:100AF000F385E02DCE01199597FF15C00E945E0584
:100B0000088519852A853B85601B710B820B930B29
:100B10000C811D812E813F81601771078207930729
:100B200020F38FEF9FEFDF91CF911F910F910895E9
:100B30002091BE05260F3327331F21323105ECF4F7
:100B40002091E205FC0190E080E0243069F082E031
:100B50000895A091BE052191AC0142565A4FA40FB1
:100B6000B52FB11D2C930196861798F38091BE0581
:100B7000680F6093BE0580E0089581E008951092AB
:100B8000E20581E08093E4051092E30561E084E1F1
:100B90000E947B0461E085E10E947B04E9EBF0E0C8
:100BA00080818E7F808380818D7F808388E48093A5
:100BB000B80085E48093BC000895CF93DF9391E063
:100BC00090939D058823B9F0C091B800D091BA00E8
:100BD0008091BC008A7B8093BC0060E084E10E942D
:100BE0007B0460E085E10E947B040E94BF05D093F6
:100BF000BA00C093B800DF91CF910895E091180634
:100C000080911706E81730F4F0E0E858FA4F808139
:100C100090E008958FEF9FEF0895909118068091CE
:100C200017062FEF3FEF981748F4E92FF0E0E85848
:100C3000FA4F208130E09F5F90931806C901089514
:100C40008091170690911806891B990B0895CF92F1
:100C5000DF92EF92FF920F931F93CF93DF937C016C
:100C6000CB018A0120917705222389F0EB016B01EA
:100C7000C40ED51ECC15DD0569F06991D701ED9143
:100C8000FC910190F081E02DC7011995F3CF642FFD
:100C90000E949805C801DF91CF911F910F91FF909D
:100CA000EF90DF90CF900895CF93DF931F92CDB751
:100CB000DEB76983209177052223F9F0209115068C
:100CC000203258F021E030E0FC013383228390E0B1
:100CD00080E00F90DF91CF91089580911606E82F64
:100CE000F0E0E95AFA4F998190838F5F809316065E
:100CF0008093150681E090E0ECCF61E0CE01019693
:100D00000E949805F7CFCF92DF92EF92FF920F9358
:100D10001F93CF93DF93FC01C48121E020937705DB
:100D2000C093560510921606109215068385682BFF
:100D30008DE098E00E945406D0911506D13208F05B
:100D400092C00E9407056B017C018091E205811130
:100D500065C082E08093E20581E08093E4058FEF37
:100D60008093E10510920606D0930506A7E5B5E04D
:100D7000E5EEF5E080E0D81385C01092070680917B
:100D80000706CC0FC82BC09307068091E30581307E
:100D900009F07CC01092E3050E9407056B017C01FD
:100DA000809107068093BB008091990590919A05E8
:100DB000A0919B05B0919C05892B8A2B8B2B99F0D8
:100DC0000E9407050091990510919A0520919B05B5
:100DD00030919C056C197D098E099F09061717072C
:100DE00028073907E0F18091BC0083FDD9CF85EC5D
:100DF0008093BC000E9407056B017C018091E20595
:100E0000823009F445C08091E1058F3F61F1809106
:100E1000E105803241F18091E10525C0809199057D
:100E200090919A05A0919B05B0919C05892B8A2BE6
:100E30008B2B09F48ACF0E94070500919905109128
:100E40009A0520919B0530919C056C197D098E09AE
:100E50009F09061717072807390708F076CF8091F2
:100E600098050E94DD051092160610921506109244
:100E70007705DF91CF911F910F91FF90EF90DF9059
:100E8000CF9008959D9191938F5F75CF85EEB0CFF0
:100E90008091990590919A05A0919B05B0919C0530
:100EA000892B8A2B8B2B09F4A9CF0E94070500916F
:100EB000990510919A0520919B0530919C056C191C
:100EC0007D098E099F09061717072807390708F0BB
:100ED00095CFC5CFFC0120812EBD9B01215031094A
:100EE00041F051810DB407FEFDCF4EB55EBD41937B
:100EF000F5CF61507109860F971F0DB407FEFDCF26
:100F00002EB5FC0120830895E0916506F0916606F8
:100F1000808190916406892B80830895E091650615
:100F2000F091660690818091640680958923808384
:100F300008958EBD00000DB407FEFDCF8EB5089557
:100F4000AF92BF92CF92DF92EF92FF920F931F93D7
:100F5000CF93DF9300D000D01F921F92CDB7DEB7A2
:100F60008C017B016A01809168068333E1F45801AA
:100F7000A40EB51EA016B10609F46FC00E948E071C
:100F800080EF0E949907812F0E949907802F0E946D
:100F900099070F5F1F4FF70181917F010E94990709
:100FA0000E948407E7CF5B01A40EB51E8433C1F411
:100FB0000E948E0719830A838D2D80688B83CC82D3
:100FC00064E070E0CE0101960E946A07AE14BF048F
:100FD00009F441C0F70181917F010E949907F6CF82
:100FE0000E948E070F3F110509F028F419820A8329
:100FF00084E08B830CC017FD17C019820A8333E08D
:10100000169507953A95E1F7007E0C600B8386E014
:10101000C816D104A0F5F701DE011496EA15FB0508
:1010200099F081918D93FACFC80126E09695879526
:101030002A95E1F7807E19830A830115104C10F47C
:101040008461D7CF8C61D5CFB6016D5F7F4FCE0164
:1010500001960E946A070E948407C60128960FB66F
:10106000F894DEBF0FBECDBFDF91CF911F910F91DE
:10107000FF90EF90DF90CF90BF90AF90089563E026
:1010800070E0CE0101960E946A07F70181917F010D
:101090000E949907AE14BF04C1F7DDCFCF93DF9351
:1010A0001F92CDB7DEB7898341E050E0BE016F5F8C
:1010B0007F4F90E080E00E94A0070F90DF91CF91DA
:1010C000089590E020916806233339F40C96982F08
:1010D000990F990F990F80E008954896F8CFDA019B
:1010E000E0916906F0E0FE2FEE27E60FF71F90E093
:1010F000982F8827A901BD018E0F9F1F0C94A00770
:10110000CF93DF931F921F92CDB7DEB779836A83A7
:1011100022E030E0AE014F5F5F4F60E170E00E947F
:101120006F080F900F90DF91CF910895CF93DF93C9
:101130001F921F92CDB7DEB779836A8322E030E039
:10114000AE014F5F5F4F64E070E00E946F080F9048
:101150000F90DF91CF910895CF93DF931F92CDB77A
:10116000DEB72091690630E0322F2227260F371F85
:1011700090E0982F8827498341E050E0BE016F5FDF
:101180007F4F820F931F0E94A0070F90DF91CF9196
:101190000895CF93DF931F92CDB7DEB76983DC014B
:1011A000ED91FC910280F381E02D41E050E0BE0121
:1011B0006F5F7F4F19950F90DF91CF910895FC01DC
:1011C0009485FB018485981303C081E0983008F072
:1011D00080E00895CF93DF931F92CDB7DEB7698388
:1011E000DC01ED91FC910280F381E02D41E050E0C3
:1011F000BE016F5F7F4F19950F90DF91CF910895DA
:101200000895FF920F931F93CF93DF93EB01FC019F
:10121000178A168A2A81211109C02B81211106C043
:101220002C81211103C02D81222301F1411551058B
:10123000E9F08A01FC01F08C80E591E00E94CB028C
:10124000AE014E5F5F4F24E030E06CE070E08F2D28
:101250000E946F08B8018F2D0E94800881E090E005
:10126000DF91CF911F910F91FF90089580E0F7CF0C
:10127000FC01848595850895FC01848995890895EC
:1012800024EA32E0FC0131832083FB01408951894B
:1012900062897389FC014283538364837583089553
:1012A000DC01ED91FC91048CF58DE02D199490E01A
:1012B00080E0089580339CF08A3324F08F3524F049
:1012C0008B3724F481E0089581344CF08B35D4F3CE
:1012D00093ED980F81E09230B0F380E008958B3267
:1012E000B9F7F0CFCF93DF93EC018C8581110CC05F
:1012F00089859A850E946A0597FD0AC0992797FDFE
:1013000080E08B8781E08C878B85DF91CF9108957A
:101310008FEF9FEFF4CF1F93CF93DF93EC01162F46
:101320000E947209811306C01C8681E0DF91CF9173
:101330001F91089580E0FACFCF93DF93EC01CE01A7
:101340000E9472098B303CF489304CF4882349F0B8
:1013500081E0888710C08D3011F08032C9F71C867B
:10136000EECF888581110AC081E090E0C15BDF4F3C
:101370009983888380E0DF91CF91089582E090E0A7
:10138000F5CFCF93FC01892B91F094819F77983012
:1013900029F078F4992359F0963079F4C1E08081EE
:1013A0009181A281B381892B8A2B8B2B39F4C0E0E8
:1013B00005C09A3099F39C3021F0C1E08C2FCF9179
:1013C0000895C1E020E030E0A9016081718182814F
:1013D00093810E94FA378111F1CFE9CFFC01768722
:1013E00065870895DC01ED91FC91068CF78DE02D69
:1013F000199591E089270895862F089581E0862721
:10140000089521E0FC018485883008F020E0822FD7
:101410000895FC01828193810097C1F02481358178
:10142000468157812417350740F0138212820190BC
:10143000F081E02D81E080870895A9014F5F5F4F23
:1014400055834483820F931FFC01608308959F920C
:10145000AF92BF92CF92DF92EF92FF920F931F93C2
:10146000CF93DF9300D01F921F92CDB7DEB78C01D0
:101470000E947209D82EF8011486F12CE12C70EF2D
:10148000C72EC8010E947209F8011486D81609F403
:10149000C1C0811119C0F801E15BFF4F82E090E00B
:1014A0009183808380E00F900F900F900F900F90AA
:1014B000DF91CF911F910F91FF90EF90DF90CF9030
:1014C000BF90AF909F9008958C3509F09EC0C801E1
:1014D0000E9472098823F9F2E6EAF2E0853709F002
:1014E00088C0F801148664E0962EB12CA12CC801A6
:1014F0000E947209882379F281344CF48053803140
:1015000048F0F801E15BFF4F83E090E0C9CF8F7DA9
:101510008753F5CF54E0AA0CBB1C5A95E1F7A82AD3
:10152000F80114869A949110E2CFC501985D811557
:10153000944020F4750123E0F222A3CFC5019C5D05
:101540008115944008F5F3E0BF22C701982F882742
:10155000990F990F8A299B29B0E0A0E01196198272
:1015600080389105A105B10598F48A835E0123E0D6
:10157000A20EB11CF50162915F01662309F481CFCF
:10158000C8010E94090AF6CFC501B0E0A0E0E7CF8C
:10159000282F2F7320682A8336E0B695A795979554
:1015A00087953A95D1F78032910538F4806C8B831A
:1015B0005E0184E0A80EB11CDDCF282F2F732068B8
:1015C0002B8326E0969587952A95E1F78031910542
:1015D00038F4806E8C835E01E5E0AE0EB11CCACF9C
:1015E00080688C83CD825E01F6E0AF0EB11CC2CF65
:1015F00032969081992309F484CF8913F9CF8181A0
:10160000882309F47ECFF8011486682FC8010E9450
:10161000090A37CF60E0C8010E94090AF8018281F7
:101620009381892B29F4E15BFF4F84E090E038CF70
:1016300081E039CFEF92FF920F931F93CF93DF9307
:10164000DC01ED90FC90E7012A813B81E881F98182
:10165000E217F30780F4B901DF01EB014991BE0104
:101660008D010F5F1F4F5C91451318C0D8014111C8
:10167000F4CF309759F4FC0184819581820F931F38
:10168000D70113969C938E931297F901CF01DF91A6
:10169000CF911F910F91FF90EF900895FD0141911F
:1016A000DF014111FBCFD4CF4F925F926F927F92B7
:1016B0008F929F92AF92BF92CF92DF92EF92FF9262
:1016C0000F931F93CF93DF93EC017B0188818B32C3
:1016D000C1F18D32B9F5219611E0888190ED980F16
:1016E0009A3018F08E3209F03AC160E070E0CB0118
:1016F000FE01219100ED020F0A3030F56A3929E927
:101700007207820729E1920708F045C0AAE0B0E01D
:101710009B01AC010E946F39802E912CB12CA12C21
:1017200024013501409450946094709446165706F5
:101730006806790680F1680D791D8A1D9B1DEF01F1
:10174000D7CF219610E0C9CF211125C0F701248100
:1017500020781123C1F02A602483608371838283FF
:101760009383812FDF91CF911F910F91FF90EF9085
:10177000DF90CF90BF90AF909F908F907F906F90B1
:101780005F904F90089528602483608371838283E3
:10179000938311E0E6CF00E0EAE08E2E912CA12C9D
:1017A000B12C61157105F0E88F07910540F0A50196
:1017B00094010E942E39CA01B9010F5FF2CFFE01D8
:1017C000299130ED320F3A3010F40F5FF8CF2E32FE
:1017D000F1F4EF012196FE012196208150EDD52EE6
:1017E000D20E29E02D1598F06C3CECEC7E07ECE075
:1017F0008E07910580F7AAE0B0E09B01AC010E9442
:101800006F396D0D711D811D911D0150E4CF208137
:101810002F7DD0E0C0E0253409F05DC021812D325C
:10182000D9F53296CC24C394DF01D0E0C0E0202F5C
:10183000002E000C330B4AE0B42EFD01DD9040ED8C
:101840004D0D4A3008F042C0BC9EA001BD9E500D17
:101850001124CD2DDD0CDD0BE097C40FD51FAE019B
:10186000420F531F4732510544F3F7018481CC20C6
:10187000D1F040E050E060E070E8111103C040E0BA
:1018800050E0BA0180788C60F701848340835183F3
:10189000628373831C2D65CF2B3219F03196C12CD6
:1018A000C3CF3296FCCF40E050E060E87FEF1111EB
:1018B00004C040E050E060E87FE780788C60F7018A
:1018C0008483408351836283738363CFCC2019F078
:1018D000D195C195D1092081211141C0C00FD11DE1
:1018E00007FDDA950E94FF371C161D0604F500E07F
:1018F000C0FF0CC024E0029FF0011124E357FD4F0C
:1019000025913591459154910E946038D595C795A0
:101910000F5F209769F711119058F7012481207803
:101920002C602483608371838283938332CFD1952B
:10193000C195D10900E0209771F3C0FF0CC024E0ED
:10194000029FF0011124E35AFD4F259135914591F5
:1019500054910E946038D595C7950F5FECCF10E089
:1019600000CFCF92DF92EF92FF92CF93DF9300D020
:101970001F921F92CDB7DEB7DC0114969C9114978D
:101980009F77963071F0FD01973028F4943070F510
:1019900090E080E011C09A30D9F09C30A1F19830ED
:1019A000B9F78D919D910D90BC91A02D811520E8E6
:1019B0009207A105B10560F70F900F900F900F905F
:1019C0000F90DF91CF91FF90EF90DF90CF9008952F
:1019D00080819181A281B381813020E89207A105A5
:1019E000B105B0F6919581959109E6CF80819181FD
:1019F0001D82BE016F5F7F4F0E94540BCE01019686
:101A00000E94B10CD9CFC080D180E280F38020E069
:101A100030E040E057ECC701B6010E94A63A87FDCE
:101A2000B7CF20E03EEF4FEF56E4C701B6010E946A
:101A3000FA3718160CF4ACCFC701B6010E94703A01
:101A4000CB01BACFCF93DF93DC01EB01EC81FD81B9
:101A50008A819B810896E817F90740F481E088871E
:101A6000F0E0E0E0CF01DF91CF9108953897FD835A
:101A7000EC833097B9F31296CD91DC9113972097B0
:101A800091F0CF018C1B9D0B23E0959587952A95AE
:101A9000E1F78D831396FC93EE93129715821482CF
:101AA00017821682DFCF1196FC93EE93F3CF0F933C
:101AB0001F93CF938C01C62F0E9483066C2F646006
:101AC000C8010E9483066C2F6B7FC8010E948306A9
:101AD00083EC90E00197F1F7CF911F910F9108955A
:101AE0000F931F93CF93DF938C01D62FC42F607F6A
:101AF000642B0E94570D80E1D89FB00111246C2BFC
:101B0000C801DF91CF911F910F910C94570D40E0C8
:101B100061E084E998E00E94700D8BE39FE10197FA
:101B2000F1F7089540E060E884E998E00C94700DC6
:101B3000CF93DF93823028F090919908986090932A
:101B4000990880939C0862E370E080E090E00E9436
:101B50002C0560919F0884E998E00E94830668EE56
:101B600073E080E090E00E942C0560E384E998E057
:101B70000E94570DCBE4D6E4CE010197F1F760E364
:101B800084E998E00E94570D2197F1F760E384E91A
:101B900098E00E94570D83E592E00197F1F760E22B
:101BA00084E998E00E94570D60919908606240E0D6
:101BB00084E998E00E94700D84E080939A0840E0E8
:101BC0006CE084E998E00E94700D0E94870D82E02D
:101BD00080939B0840E066E084E998E00E94700DE5
:101BE00040E062E084E998E00E94700D8BE39FE1A1
:101BF0000197F1F7DF91CF91089541E00E94700DB8
:101C000081E090E008950F931F93CF93DF934115E8
:101C1000510541F0FC01048115810115110539F4CC
:101C2000FB011082DF91CF911F910F9108954150D8
:101C300051094017510708F48A01EB01FC0160814A
:101C40007181A801CE010E942C3DC00FD11F1882C6
:101C5000E9CFAF92BF92CF92DF92EF92FF920F93B4
:101C60001F93CF93DF9300D01F92CDB7DEB78C01C7
:101C70006B017A01809168068333E9F45B016801A6
:101C8000C40ED51EC016D106A9F10E948E078FE0A2
:101C90000E949907812F0E949907802F0E9499071F
:101CA0000F5F1F4F80E00E949907F50181935F014C
:101CB0000E948407E7CF843369F50E948E07198359
:101CC0000A838F2D8F778B83EC8264E070E0CE01E6
:101CD00001960E946A07A70170E060E0C6010E94B9
:101CE000153DE114F10421F0B701C6010E946A0715
:101CF0000E948407C7010F900F900F900F90DF9103
:101D0000CF911F910F91FF90EF90DF90CF90BF90F8
:101D1000AF9008950E948E070F3F110509F030F42F
:101D200019820A831B8263E070E0D1CF17FD0BC0DC
:101D300019820A8333E0169507953A95E1F7007EFC
:101D400008600B83F0CFC80126E0969587952A9509
:101D5000E1F7807E19830A830115104C18F4806125
:101D60008B83E1CF8861FCCFCF93DF931F92CDB7F8
:101D7000DEB72091690630E0322F2227260F371F69
:101D800090E0982F882741E050E0BE016F5F7F4FC1
:101D9000820F931F0E94290E89810F90DF91CF91AE
:101DA0000895CF93C82F462F61E070E00E94AC08E1
:101DB00061E070E08C2F0E94B40E8111F9CFCF91B9
:101DC0000895CF93C82F80E591E00E94CB0268E090
:101DD00070E08C2FCF910C94D10ECF93C82F80E55B
:101DE00091E00E94CB0260E170E08C2FCF910C94C7
:101DF000D10ECF93DF93EC01888D883020F40E94C0
:101E0000ED0E88E0888FDF91CF910895CF93C82F92
:101E100080E591E00E94CB0263E070E08C2FCF91CF
:101E20000C94B40ECF93DF93EC018C858830D0F402
:101E30000E94060F843189F0882379F0883169F097
:101E400021E08C3159F4E881F9810084F185E02D9D
:101E5000CE01199521E0892B09F420E0822FDF9132
:101E6000CF91089580E0FBCFCF92DF92EF92FF9267
:101E7000CF93DF93EC018C85883068F40E94E10EEB
:101E80000E945E056B017C018C850E94060F81110A
:101E900009C088E08C87DF91CF91FF90EF90DF90B1
:101EA000CF90089561E070E080E090E00E942C0502
:101EB0000E945E05AB01BC014C195D096E097F09EA
:101EC0008D859E85B0E0A0E0481759076A077B071B
:101ED000D8F28C850E94ED0EDCCFCF93FC01C08D33
:101EE00080E591E00E94CB0260E270E08C2F0E94BE
:101EF000D10E62E070E08C2F0E94B40E84FD16C0FB
:101F000062E070E08C2F0E94B40E83FF0AC048E1AB
:101F100062E070E08C2F0E94AC0880E090E0CF91EE
:101F2000089580E591E00E94CB02E3CF40E162E0BA
:101F300070E08C2F0E94AC0881E0F0CFCF93DF934C
:101F40001F92CDB7DEB741E050E0BE016F5F7F4F1B
:101F500090E080E00E94290E89810F90DF91CF915F
:101F60000895CF93DF93C4E1D0E00E949E0F8823B1
:101F700061F061E070E080E090E00E942C05219724
:101F8000A1F780E0DF91CF91089581E0FBCF1F930F
:101F9000CF93DF931F92CDB7DEB7182F80E591E086
:101FA0000E94CB02812F0E94610827E0129FF0015E
:101FB0001124E45DF94F22813381377041E050E014
:101FC000BE016F5F7F4F820F931F0E94290E898190
:101FD0000F90DF91CF911F910895FC01808D883083
:101FE00040F4218D328D232B21F00E94C70F90E009
:101FF00008958FEF9FEF0895CF93DF93FC01248521
:10200000283028F08FEF9FEFDF91CF910895EC01FA
:102010000190F081E02D0084F185E02D1995892B48
:1020200089F38C850E94C70F90E0EECFDA01E09132
:102030006906F0E0FE2FEE27E60FF71F90E0982FDD
:102040008827A901BD018E0F9F1F0C94290E8F9226
:102050009F92AF92BF92CF92DF92EF92FF920F9337
:102060001F93CF93DF93CDB7DEB760970FB6F89489
:10207000DEBF0FBECDBF7C0190916806911115C0E7
:1020800018E0812F60960FB6F894DEBF0FBECDBF6B
:10209000DF91CF911F910F91FF90EF90DF90CF9044
:1020A000BF90AF909F908F90089508E0933309F40C
:1020B00004E06B0180E591E00E94CB029E012F5F5E
:1020C0003F4F5901490110E063E070E0812F0E9409
:1020D000B40EF40181934F018823C1F01F5F0113F7
:1020E000F3CF00E0F50181915F018D3149F0883136
:1020F00039F08A51823020F00F5F1013F3CFC0CF38
:1021000060E170E0802F0E94D10E102FA12EB12C23
:1021100083EE93E00197F1F742E870E060E0812FF1
:102120000E94AC084FEF62E070E0812F0E94AC0883
:10213000B601C114D10491F4809100029091010282
:1021400001968115F0EC9F0708F45CC090930102A2
:10215000809300026091000270910102812F0E9421
:10216000960886E0ECE0F2E0DE01199601900D920F
:102170008A95E1F7F70183818F778C8784818D873A
:1021800085818E87A7014E5F5F4F24E030E06CE0D1
:1021900070E0812F0E946F08B601812F0E94800895
:1021A00026E030E0AE01475F5F4F66E070E0812FD0
:1021B0000E946F0861E070E0812F0E94D10E27E03D
:1021C0002A9DC0012B9D900D11249C01245D394F47
:1021D0007901F9011182108222E030E0AE01415F05
:1021E0005F4F68E270E0812F0E9416108F859889FA
:1021F000982789279827F70193838283168215826F
:1022000014823FCF80E090ECA1CFCF92DF92EF928B
:10221000FF920F931F93CF93DF9300D000D0CDB7E1
:10222000DEB78C016B017A01FC01808D883010F4DF
:102230000E94ED0E84EA92E09A838983F6018281FE
:102240009381A481B5818B839C83AD83BE83B701C9
:10225000CE0101960E942710F801808F8830A0F4EB
:10226000F586E486128E118E81E026960FB6F894DC
:10227000DEBF0FBECDBFDF91CF911F910F91FF90B9
:10228000EF90DF90CF90089580E0EFCF7F928F9214
:102290009F92AF92BF92CF92DF92EF92FF920F93F5
:1022A0001F93CF93DF931F921F92CDB7DEB7782E87
:1022B0008B014A01590122E030E0AE014F5F5F4FD0
:1022C00064E270E00E941610E980FA80FE24EF2498
:1022D000FE24E00EF11E9701377040916806072D2D
:1022E00010E0433309F042C0085F1F4F102F002752
:1022F000110F110F110FC901800F911F4733C9F141
:10230000A9014A0D5B1D4130584098F160E078E02A
:102310006B01C21AD30AA601B4010E94A007A5014D
:102320004C195D09B4016C0D7D1DC8010E94A00708
:10233000EA0CFB1CF982EA8222E030E0AE014F5F3A
:102340005F4F64E270E0872D0E946F080F900F903E
:10235000DF91CF911F910F91FF90EF90DF90CF9081
:10236000BF90AF909F908F907F900895005F1F4F18
:10237000BDCFA501B401DACFEF92FF921F93CF93A7
:10238000DF931F921F92CDB7DEB7182F22E030E007
:10239000AE014F5F5F4F60E270E00E941610E9806F
:1023A000FA80FE24EF24FE2422E030E0AE014F5FED
:1023B0005F4F60E270E0812F0E94161089819A8140
:1023C000982789279827E816F90689F487E0189F47
:1023D000F0011124E45DF94FF582E482C7010F900A
:1023E0000F90DF91CF911F91FF90EF9008957C01A6
:1023F000DBCF1F93CF93DF93182F80E591E00E94EE
:10240000CB02812F0E94BC11EC0163E070E0812FB0
:102410000E94B40E873121F08C3111F0D0E0C0E081
:10242000CE01DF91CF911F910895CF93DF93EC01FF
:102430008C85883060F40E94060F873111F08C3152
:1024400031F48C850E94F9118115984088F3DF9151
:10245000CF910895FC018485883010F40C94F91113
:1024600090E080E008959F92AF92BF92CF92DF926A
:10247000EF92FF920F931F93CF93DF938C015B0139
:10248000942EE52EFC01C688D788F08C80E591E07B
:102490000E94CB028F2D0E94BC11C92DDE2D8C17FE
:1024A0009D0708F4EC019E01A501B6018F2D0E9445
:1024B0004611F801868997898C0F9D1F978B868B13
:1024C000CE01DF91CF911F910F91FF90EF90DF90A0
:1024D000CF90BF90AF909F9008958F929F92AF92B0
:1024E000BF92CF92DF92EF92FF920F931F93CF9301
:1024F0006C015B018A01FC01C485C830F0F57A01EA
:102500004130584018F0E12C88E0F82E80E591E049
:102510000E94CB028C2F0E94BC114C0163E070E042
:102520008C2F0E94B40E873111F08C3149F58E1436
:102530009F0460F380E591E00E94CB029701A50122
:1025400070E060E08C2F0E94461160E270E08C2FFA
:102550000E94D10E62E070E08C2F0E94B40E84FDC8
:1025600017C063E070E08C2F0E94B40E81110BC085
:1025700081E090E0F6019383828310E000E010C0D8
:10258000F12CE12CD7CF80E591E00E94CB02E2CF85
:1025900040E162E070E08C2F0E94AC08EF2841F32C
:1025A000C801CF911F910F91FF90EF90DF90CF90D6
:1025B000BF90AF909F908F900895FF920F931F93BD
:1025C000CF93DF931F921F92CDB7DEB7F82E22E094
:1025D00030E0AE014F5F5F4F66E270E00E94161080
:1025E00009811A8110270127102722E030E0AE016F
:1025F0004F5F5F4F66E270E08F2D0E941610898159
:102600009A819827892798270817190749F4C8013C
:102610000F900F90DF91CF911F910F91FF90089530
:102620008C01E3CF1F93CF93DF93182F87E0189F80
:10263000E0011124C45DD94F88819981009761F42C
:1026400080E591E00E94CB02812F0E94DD122E8155
:10265000821B910999838883DF91CF911F910895FF
:10266000FC018485883010F40C94121390E080E013
:1026700008954F925F927F928F929F92AF92BF92F6
:10268000CF92DF92EF92FF920F931F93CF93DF933E
:102690001F921F92CDB7DEB7782E6B014A01A82E8C
:1026A000B12C27E0829FC0011124FC01E45DF94FA9
:1026B0007F010081118180E591E00E94CB02081525
:1026C000190554F4872D0E94DD12F70126818C0133
:1026D000021B1109118300830115110529F563E01F
:1026E00070E0872D0E94B40E843159F0882349F0A0
:1026F00001E010E08C3111F410E000E0119501953B
:102700001109C8010F900F90DF91CF911F910F9188
:10271000FF90EF90DF90CF90BF90AF909F908F9001
:102720007F905F904F900895801691060CF484017D
:1027300087E08A9DF0018B9DF00D1124E45DF94F37
:10274000E280F380C114D10451F12701F7E05F2248
:10275000872D0E946108840D951D209168062733FE
:1027600009F453C09801240D351D2130384008F478
:102770004CC020E038E0490184189508A401B60156
:102780000E94290E2601480C591C6801C818D90856
:10279000872D0E946108A601B2010E94290EE00E59
:1027A000F11E87E08A9DF0018B9DF00D1124E45D00
:1027B000F94FF382E28220813181201B310B31837A
:1027C00020838681800F912F911D8A3F910510F4FF
:1027D000232BF1F487E08A9DF0018B9DF00D1124ED
:1027E000E45DF94F1682F982EA8222E030E0AE0120
:1027F0004F5F5F4F68E270E0872D0E946F0860E4D2
:1028000070E0872D0E94D10E7CCFA801B601C5CF04
:10281000868377CFCF93DF93FC01218D328D2115F5
:10282000310529F48FEF9FEFDF91CF910895EC01EF
:10283000808D4217530708F0A9010E94391318161A
:10284000190684F7298D3A8D281B390B3A8F298F69
:10285000EBCF0F931F93CF93DF931F92CDB7DEB7CC
:10286000FC01218D328D232B41F48FEF9FEF0F90D0
:10287000DF91CF911F910F9108958C0141E050E0BD
:10288000BE016F5F7F4FFC01808D0E9439131816C7
:1028900019065CF7F801818D928D0197928F818FD7
:1028A000898190E0E4CFCF93DF931F92CDB7DEB75D
:1028B00041E050E0BE016F5F7F4FFC0184850E94C4
:1028C00039131816190634F4898190E00F90DF91BE
:1028D000CF9108958FEF9FEFF9CFFC018485883069
:1028E00010F40C94391390E080E008958F929F9239
:1028F000AF92BF92CF92DF92EF92FF920F931F930E
:10290000CF93DF9300D000D000D01F92CDB7DEB7B9
:1029100090916806911115C018E0812F2A960FB684
:10292000F894DEBF0FBECDBFDF91CF911F910F9105
:10293000FF90EF90DF90CF90BF90AF909F908F90DF
:10294000089528E0F22E933311F494E0F92E6B01F0
:10295000082F80E591E00E94CB029E012F5F3F4F40
:102960005901490110E063E070E0812F0E94B40E2C
:10297000F40181934F018823C1F01F5FF112F3CF5F
:10298000F12CF50191915F019D3149F0983139F0B9
:102990009A51923020F0F3941F11F3CFBDCF60E134
:1029A00070E08F2D0E94D10E1F2DE12EF12C83EEB1
:1029B00093E00197F1F7402F70E060E0812F0E94D3
:1029C000AC084FEF62E070E0812F0E94AC08B601C6
:1029D000CD2889F480910002909101020196811521
:1029E000F0EC9F0798F190930102809300026091B0
:1029F000000270910102812F0E94960861E070E050
:102A0000812F0E94D10E27E02E9DC0012F9D900D99
:102A100011249C01245D394F7901F9011182108242
:102A200022E030E0AE01475F5F4F68E270E0812F47
:102A30000E94161089859A85982789279827F7017B
:102A40009383828316821582148267CF80E090EC94
:102A5000CACF0F931F93CF93DF93EC018B01888D27
:102A6000883010F40E94ED0EB80182E00E947614C6
:102A7000888F883050F41D870C871A8E198E81E05C
:102A8000DF91CF911F910F91089580E0F9CFCF9200
:102A9000DF92EF92FF921F93CF93DF93EC017B01C4
:102AA0006A018C85883048F40E94060F882319F04B
:102AB0008C850E94E10E88E08C87F70182819381EA
:102AC000A481B5810097A105B10551F490E080E0A3
:102AD000DF91CF911F91FF90EF90DF90CF900895FD
:102AE0008F3F9F4FAF4FBF4F89F370E060E081E2AF
:102AF0000E947614182F8C87883040F780E591E08B
:102B00000E94CB02A7014E5F5F4F24E030E06CE0F3
:102B100070E0812F0E946F08B601812F0E9480080B
:102B200064E070E0812F0E94D10E0E945E056B016F
:102B30007C018C850E94060F873111F18C3101F1E7
:102B4000882321F20E945E05AB01BC014C195D098E
:102B50006E097F098D859E85B0E0A0E084179507FA
:102B6000A607B70738F061E070E080E090E00E94CF
:102B70002C05DFCF8C850E94ED0E88E08C87A6CFD8
:102B800081E090E0A5CF0F931F93CF93DF931F9227
:102B90001F92CDB7DEB7FC0124852830E0F48C010C
:102BA00080E591E00E94CB0222E030E0AE014F5F71
:102BB0005F4F60E170E0F80184850E941610898102
:102BC0009A819827892798270F900F90DF91CF91AE
:102BD0001F910F91089590E080E0F6CF0F931F931F
:102BE000CF93DF931F921F92CDB7DEB7FC012485F0
:102BF0002830E0F48C0180E591E00E94CB0222E0D5
:102C000030E0AE014F5F5F4F64E070E0F801848513
:102C10000E94161089819A819827892798270F90FA
:102C20000F90DF91CF911F910F91089590E080E078
:102C3000F6CFDC0184EA92E08D939D9384E0FB0162
:102C400001900D928A95E1F70895EF92FF920F930C
:102C50001F93CF93DF9300D01F92CDB7DEB78C01C7
:102C60007B01FB0184858830A8F084EA92E0F801BA
:102C7000918380831282138214821582C8010F907F
:102C80000F900F900F90DF91CF911F910F91FF90B8
:102C9000EF90089580E591E00E94CB0224E030E0BF
:102CA000AE014F5F5F4F6CE070E0F70184850E94DA
:102CB0001610BE016F5F7F4FC8010E941916DECF4C
:102CC0000F931F93CF93DF9300D000D01F921F92DA
:102CD000CDB7DEB78C01D80159964D915C915A97CA
:102CE0004115510551F0ED91FC91048CF58DE02DCD
:102CF00070E060E0C8011995EECFF801808D0E9468
:102D00001213892BB1F148E050E0BE016F5F7F4F95
:102D1000D80158968C910E94391318161906F4F4AC
:102D2000D801509684E0FE01319601900D928A956B
:102D3000E1F78D8190E0982F88272E81820F911DD9
:102D4000F801958B848B8F81282F30E0322F22273A
:102D50008885820F932F911D928F818F28960FB6B1
:102D6000F894DEBF0FBECDBFDF91CF911F910F91C1
:102D7000089590E080E0F2CF4F925F926F927F9241
:102D80008F929F92AF92BF92CF92DF92EF92FF927B
:102D90000F931F93CF93DF93CDB7DEB763970FB633
:102DA000F894DEBF0FBECDBF7C016B013A01FB0181
:102DB00020E090E080E06AE03191332309F461C0C3
:102DC00040ED430F4A3008F04DC0689FA001699F55
:102DD000500D1124CA01C097830F911D37FD9A959C
:102DE0008F3F910549F340F3F7014281538164819C
:102DF00075818091450890914608A0914708B0914F
:102E00004808481759076A077B0709F40DC287016C
:102E1000085F1F4F0E945E056F7077277C5FC801B7
:102E20000E942915813009F004C284EA92E09A8355
:102E30008983F70182819381A481B5818B839C83EF
:102E4000AD83BE8345E350E0BE016F5F7F4FC80195
:102E50000E940109892BA9F5D12CC12CC8010E941F
:102E6000F90E17C03E3209F0BFCF233009F4BCCFB2
:102E7000D301A20FB11D12968C932F5F90E080E0DA
:102E80009BCF233009F0B0CFF3018583CC24C394CA
:102E9000D12CC60163960FB6F894DEBF0FBECDBF2E
:102EA000DF91CF911F910F91FF90EF90DF90CF9026
:102EB000BF90AF909F908F907F906F905F904F905A
:102EC00008950E945E05F7017783668342E050E033
:102ED000B7016A5F7F4FC8010E94331281E090E022
:102EE0009A83898342E050E0BE016F5F7F4FC80143
:102EF0000E94331280E091E09A83898342E050E09F
:102F0000BE016F5F7F4FC8010E9433121A8219827F
:102F100042E050E0BE016F5F7F4FC8010E94331254
:102F200042E050E0BE016F5F7F4FC8010E94331244
:102F300042E050E0BE016F5F7F4FC8010E94331234
:102F40005601F6018081882301F16501F601819126
:102F50002F01882311F08E32B1F446018A189B08A4
:102F60001814190474F48D8641E050E0BE01635FCB
:102F70007F4FC8010E943312A401B501C8010E940D
:102F800033125201DECF6201E1CF1D8641E050E0F5
:102F9000BE01635F7F4FC8010E943312C12CDD2444
:102FA000D394DA82C98242E050E0BE016F5F7F4F66
:102FB000C8010E943312DA82C98242E050E0BE01A9
:102FC0006F5F7F4FC8010E943312C8010E946D0FCE
:102FD000892B09F441CFF3E0AF2EB12C230122E07D
:102FE000420E511CD4C0F701428153816481758126
:102FF000808D918DA28DB38D481759076A077B0785
:1030000009F008C1848D958DC59709F003C181A190
:1030100092A15DEFC52EDD24DA940C970CF4ADC0BF
:103020004CE050E0BE016F5F7F4FC8010E940A1460
:103030008B819C819827892798279A8B898BF70108
:103040004681578129813A814217530709F0E7C029
:1030500097FFE5C08F7092703BEFC32EDD24DA94AA
:10306000892B09F08AC06F807884762467247624BF
:103070002AEFC22EDD24DA946114710409F47DC0B4
:10308000D12CC12C8D819E81982789279827C8161D
:10309000D906F8F441E050E0BE01635F7F4FC801FC
:1030A0000E940A144D85442331F050E070E060E046
:1030B000C8010E940A148D858111ECCF44E050E0D4
:1030C00070E060E0C8010E940A14FFEFCF1ADF0A27
:1030D000D9CF912C812C41E050E0BE016D5E7F4F35
:1030E000C8010E940A144B89842F807C09F06CC0AF
:1030F000442331F050E070E060E0C8010E940A14FF
:103100008B898111E8CF42E050E0BE01615F7F4FC3
:10311000C8010E940A1442E050E0BE01635F7F4F85
:10312000C8010E940A1444E050E070E060E0C80169
:103130000E940A1442E050E0BE016F5E7F4FC8015A
:103140000E940A148F85988949895A89811591406E
:1031500009F043C0CD84DE84DC24CD24DC2481E06E
:10316000C816D104D1F54115544009F04AC044E0D5
:1031700050E0B201C8010E940A1421E0A21AB1086D
:1031800009F46CCEFFEFCF16DF0609F067CE0E9480
:103190005E053B014C01C8010E9460161816190615
:1031A0000CF421CF0E945E056619770988099909F8
:1031B000693873418105910548F562E370E080E06C
:1031C00090E00E942C05E7CF41E050E070E060E025
:1031D000C8010E940A141B8A93CF542745275427FD
:1031E00070E060E0C8010E940A14FFEF8F1A9F0A86
:1031F0006814790409F06FCF96EFC92EDD24DA94B4
:10320000BCCFE7EFCE2EDD24DA94B7CFCC24CA941E
:10321000DC2CB3CF6EEFC62EDD24DA94AECF4CEFAC
:10322000C42EDD24DA94A9CF8EEFC82EDD24DA94E3
:1032300030CED12CC12C2DCECF92DF92EF92FF92C7
:103240000F931F93CF93DF93CDB7DEB7AF970FB632
:10325000F894DEBF0FBECDBF7C016A0104EA12E024
:103260001A8309831C861B8688EE93E0A0E0B0E0F9
:103270008D879E87AF87B88B8CE192E09A8789878C
:10328000188F0F8B198E1A8E1B8E1C8E88E089A3C7
:103290001BA70AA71CA61DA61EA61FA6809139085B
:1032A00090913A08A0913B08B0913C088EA39FA34F
:1032B000A8A7B9A78B839C83AD83BE8318861F8282
:1032C000AE01465D5F4FCE0101960E94BC16813073
:1032D0009105B1F4D701ED91FC910488F589E02DB9
:1032E0001DA30CA38CA59DA5AEA5BFA58EA39FA3D2
:1032F000A8A7B9A7A601BE016C5D7F4FC7011995AC
:10330000AF960FB6F894DEBF0FBECDBFDF91CF9161
:103310001F910F91FF90EF90DF90CF900895CF9283
:10332000DF92EF92FF920F931F93CF93DF93CDB76E
:10333000DEB7AF970FB6F894DEBF0FBECDBF8C01DE
:103340006B017A0184EA92E09A8389831B821C8252
:103350001D821E821C861B8648EE53E060E070E0F2
:103360004D875E876F87788B2CE132E03A8729871B
:10337000988F8F8B198E1A8E1B8E1C8E28E029A396
:103380009BA78AA71CA61DA61EA61FA6D8011C9631
:103390008C91883060F40E94060F882321F0F80198
:1033A00084850E94E10E88E0D8011C968C93809160
:1033B000390890913A08A0913B08B0913C088EA33F
:1033C0009FA3A8A7B9A78B839C83AD83BE831886D0
:1033D0001F82AE01465D5F4FB601CE0101960E948D
:1033E000BC160097C1F0D801ED91FC910684F785D9
:1033F000E02D84EA92E09DA38CA38CA59DA5AEA5AB
:10340000BFA58EA39FA3A8A7B9A7A701BE016C5D06
:103410007F4FC8011995AF960FB6F894DEBF0FBE67
:10342000CDBFDF91CF911F910F91FF90EF90DF9073
:10343000CF9008957F928F929F92AF92BF92CF923A
:10344000DF92EF92FF920F931F93CF93DF93CDB74D
:10345000DEB7A6970FB6F894DEBF0FBECDBF8C01C6
:10346000762E942E852E20E2A22ECE0101967C018E
:10347000DC01EA2D1D92EA95E9F76801F3E4CF0E2D
:10348000D11C84EA92E09AA389A38FEF8BA38CA32B
:103490008DA38EA343E450E0BE016F5D7F4FC60154
:1034A0000E940109019609F4BFC081E089838A83E3
:1034B00086E0B82EBB821C82D80114966D917D9156
:1034C0008D919C9117970E94CC3A6D837E838F8358
:1034D000988789869A8680E890E09C878B874CE164
:1034E00050E0B701C6010E943312FE0137968AE10F
:1034F000DF011D928A95E9F74801B8E08B0E911C17
:10350000F401D70101900D92BA94E1F740E150E047
:10351000B701C6010E943312F7011192AA94E9F78C
:1035200096E0A92EB12C40E250E0B701C6010E94FE
:103530003312F1E0AF1AB108B1F783E6898392E85C
:103540009A8393E59B838C8385E38D8381E08E83CF
:103550007F829DE3988797E099878A8786E0F401C8
:10356000DE011B9601900D928A95E1F78CE0898B24
:103570008A8B67EB72E0CE0143960E94253DD8010D
:103580001B966C91CE0149960E94D302F801648586
:10359000CE014B960E94D302D8011D966C91CE01AC
:1035A0004D960E94D3024EE150E0B701C6010E9441
:1035B0003312B3E07B121EC082E3898384E08A83E6
:1035C000F80196859B8397859C8390899D8391893B
:1035D0009E8396E39F838887828D8987838D8A87E0
:1035E000848D8B87858D8C874CE050E0B701C601B8
:1035F0000E94331287E3898386E08A8391E09B836C
:1036000093E09C838D838FE08E838AE38F838BE3AB
:1036100088878FEF898749E050E0B701C6010E9493
:103620003312C6010E946D0FA6960FB6F894DEBF46
:103630000FBECDBFDF91CF911F910F91FF90EF9003
:10364000DF90CF90BF90AF909F908F907F90089524
:103650000F931F93CF93DF93EC018881998100979B
:1036600059F02A813B812617370730F081E0DF913E
:10367000CF911F910F9108958B016F5F7F4F0E9433
:103680000C3C009759F0998388831B830A832C8113
:103690003D81232B59F7FC011082E8CF80E0E7CF72
:1036A000EF92FF920F931F93CF93DF9361157105F4
:1036B00041F480E0DF91CF911F910F91FF90EF9047
:1036C000089541155105B1F07B01EC010C811D817C
:1036D000040F151FB8010E94281B882351F328816D
:1036E00039818C819D81B701820F931F0E94253DF6
:1036F0001D830C8381E0DECFCF93DF93EC01EAA141
:10370000FBA1E80FF91F1282BC016E5F7F4F61F0D1
:10371000FB0101900020E9F73197AF01461B570BE1
:10372000888199810E94501B1BA21AA2DF91CF9120
:103730000895CF93DF93EC018AA19BA19C012F5F99
:103740003F4F3BA32AA3FE01E80FF91F62830296B5
:10375000809718F0CE010E947C1B8CA19DA1019640
:103760009DA38CA3DF91CF910895EF92FF920F93C9
:103770001F93CF93DF93EC017B0162E20E94991BC0
:103780008701F80161918F01662391F0E6EAF2E08A
:10379000F280FF2049F0329681816813F9CF6CE501
:1037A000CE010E94991B6F2DCE010E94991BE9CF7B
:1037B00062E2CE01DF91CF911F910F91FF90EF90C8
:1037C0000C94991BCF92DF92EF92FF920F931F936D
:1037D000CF93DF93EC016A018B017B01E40EF51EB0
:1037E0000E151F05A9F0F80121918F018AA19BA157
:1037F000AC014F5F5F4F5BA34AA3FE01E80FF91FC7
:1038000022830296809760F3CE010E947C1BE8CF52
:103810004CA15DA14C0D5D1D5DA34CA3DF91CF912B
:103820001F910F91FF90EF90DF90CF900895EF924E
:10383000FF920F931F93CF93DF93CDB7DEB76697B9
:103840000FB6F894DEBF0FBECDBF8C01CB01FE01D9
:1038500077969F014AE0E42EF12CB7010E94B03A1E
:10386000805D8293CB010097C1F7A9014E1B5F0BCE
:10387000BF01C8010E94E21B66960FB6F894DEBF36
:103880000FBECDBFDF91CF911F910F91FF90EF90B1
:1038900008958F929F92AF92BF92CF92DF92EF9254
:1038A000FF920F931F93CF93DF93CDB7DEB7669749
:1038B0000FB6F894DEBF0FBECDBF6C018E01095E5E
:1038C0001F4F78018AE0882E912CA12CB12CCB01BE
:1038D000BA01A50194010E942E39942F852F605DB5
:1038E000F80162938F01A901692F782F41155105C5
:1038F0006105710561F7A7014E1B5F0BBF01C60192
:103900000E94E21B66960FB6F894DEBF0FBECDBFD5
:10391000DF91CF911F910F91FF90EF90DF90CF90AB
:10392000BF90AF909F908F900895FB010190002071
:10393000E9F73197AF01461B570BDC01ED91FC9184
:103940000280F381E02D19948F929F92AF92BF92E3
:10395000EF92FF920F931F93CF93DF93CDB7DEB714
:10396000A1970FB6F894DEBF0FBECDBF7C01FA0160
:10397000CB0119A2223008F42AE08E010F5D1F4FFF
:10398000822E912CB12CA12CBF01A50194010E9483
:103990002E39F901CA016A300CF5605DD8016E93C9
:1039A0008D01232B242B252B79F790E080E01097B5
:1039B00021F0BD01C7010E94951CA1960FB6F89495
:1039C000DEBF0FBECDBFDF91CF911F910F91FF9052
:1039D000EF90BF90AF909F908F900895695CDECF7D
:1039E0008F929F92AF92BF92CF92DF92EF92FF920F
:1039F0000F931F93CF93DF937C018B016C0182E0C7
:103A0000C80ED11C4701E5E08E0E911CD0E0C0E04D
:103A1000F60141916F0150E070E060E02AE0C801DA
:103A20000E94A41C5C016EE2C8010E9408038A0D7A
:103A30009B1DC80FD91FC814D90451F7F701458140
:103A400050E070E060E02AE0C8010E94A41C8C0FE6
:103A50009D1FDF91CF911F910F91FF90EF90DF900D
:103A6000CF90BF90AF909F908F9008954F925F92AC
:103A70006F927F928F929F92AF92BF92CF92DF927E
:103A8000EF92FF92CF936B017C01842EAC019B01DE
:103A90000E94AB3A6EEB72E0811126C0260137011D
:103AA000E89477F82FEF3FEF4FE75FE7C301B201EC
:103AB0000E94AB3A81110CC02FEF3FEF4FE75FE759
:103AC000C301B2010E94FA3762EC72E0181664F08A
:103AD0002FEF3FEF4FE75FE4C701B6010E94A63A20
:103AE00018169CF466EC72E080E797E0CF91FF90A7
:103AF000EF90DF90CF90BF90AF909F908F907F908E
:103B00006F905F904F900C94951C2FEF3FEF4FE715
:103B10005FECC701B6010E94FA3787FDE3CF20E0D2
:103B200030E0A901C701B6010E94FA37B12CA12CDF
:103B300087FF0AC06DE280E797E00E9408035C01FE
:103B4000F7FAF094F7F8F094C82D60E070E080E0A8
:103B50009FE3912C20E030E040E251E40E94FE39E6
:103B600093949814B8F3A70196010E9492392B01FF
:103B70003C010E94773A6B017C010E94FF379B0158
:103B8000AC01C301B2010E9491392B013C012AE032
:103B9000B701A60180E797E00E94A41C7C016EE2B9
:103BA00080E797E00E940803E80EF91EEA0CFB1C70
:103BB000C15028F120E030E040E251E4C301B201FD
:103BC0000E9460382B013C010E94773A4B01B12CD6
:103BD000A12C2AE0B501A40180E797E00E94A41C73
:103BE000E80EF91EC501B4010E94FF379B01AC012C
:103BF000C301B2010E9491392B013C01D9CFC70109
:103C0000CF91FF90EF90DF90CF90BF90AF909F90BB
:103C10008F907F906F905F904F90089562E575E070
:103C20000C94951CCF93DF93BC0180E797E00E9432
:103C3000951CEC0180E797E00E940E1E8C0F9D1FE3
:103C4000DF91CF9108950F931F93CF93DF93EC01F2
:103C50000E940F038C01CE010E940E1E800F911F47
:103C6000DF91CF911F910F9108950F931F93CF93E1
:103C7000DF93EC010E941D038C01CE010E940E1EF9
:103C8000800F911FDF91CF911F910F9108950C9498
:103C9000951CFB0101900020E9F73197AF01461B0D
:103CA000570B0C94E21B2F923F924F925F926F92B0
:103CB0007F928F929F92AF92BF92CF92DF92EF92BC
:103CC000FF920F931F93CF93DF93CDB7DEB7669725
:103CD0000FB6F894DEBF0FBECDBF8C011B01DC0117
:103CE00014968C9114978F77863009F470C278F40B
:103CF0008230B0F0843008F051C212964D915C9140
:103D000013976D917C91C1010E94E21B16C28C3009
:103D1000B1F160F4883009F455C28A3009F444C224
:103D20006AEC72E0C1010E94491E07C2803209F4A8
:103D300008C28034A9F76BE5C1010E94991BF80104
:103D4000008111810115110509F4F3C1B101C80108
:103D50000E94531ED80115968C91882309F4E9C15D
:103D6000B8E08B02C0011124080F191F01151105BD
:103D700009F4DFC16CE2C1010E94991BE3CFF80195
:103D8000C080D180E280F380A7019601C701B6010F
:103D90000E94FA37882331F06AEC72E0C1010E9478
:103DA000491E9FC120E030E0A901C701B6010E9471
:103DB000FA37882371F0A7019601C701B6010E9466
:103DC00092399B01AC01C701B6010E94FA378823E2
:103DD00019F320E030E0A901C701B6010E94FA37CB
:103DE00087FF08C06DE2C1010E94991BF7FAF094A9
:103DF000F7F8F09420E836E948E15BE4C701B60142
:103E00000E94A63A87FD81C064E1A62EB12C00E293
:103E100010E01A8A198AF501E357FD4F2591359173
:103E200045915491C701B6010E94A63A87FD13C07F
:103E3000F501E35AFD4F2591359145915491C70104
:103E4000B6010E9460386B017C0129893A89200FF4
:103E5000311F3A8B298B1595079534E0A31AB108C9
:103E60008CEFA8168FEFB806B1F655245A9420E0CF
:103E700030E0A901C701B6010E94A63A18160CF05D
:103E80004BC02CEA35EC47E257E3C701B6010E946C
:103E9000FA3718160CF440C0A52DB4E0AB02C001EF
:103EA0001124B12CA12CFC01EB58FD4F3F019C01CA
:103EB00023573D4F49013FEF531671F1F301EA0DCE
:103EC000FB1D6591759185919491A70196010E94C2
:103ED000A63A18169CF4F401EA0DFB1D25913591C4
:103EE00045915491C701B6010E9460386B017C0175
:103EF00089899A89801B910B9A8B898B15950795D7
:103F00005A9494E0A91AB108D6CF00E210E045E037
:103F1000542E1A8A198AABCFC701B6010E94773A8C
:103F20004B015C012B013C0106E080E492E4AFE030
:103F3000B0E08B8B9C8BAD8BBE8B102F01509AE029
:103F40004916510461047104C8F06B897C898D891C
:103F50009E892AE030E040E050E00E942E392B8B11
:103F60003C8B4D8B5E8BC301B2012AE030E040E018
:103F700050E00E942E3929013A01DFCFC501B4017A
:103F80000E94FF379B01AC01C701B6010E94913925
:103F90006B017C016B897C898D899E890E94FF372A
:103FA0009B01AC01C701B6010E9460382B013C01A6
:103FB0000E94773A6B017C010E94FF379B01AC01A4
:103FC000C301B2010E9491399B01AC010E94923958
:103FD0000E94773AC60ED71EE81EF91E8B899C896F
:103FE000AD89BE89C816D906EA06FB06D8F09FEF50
:103FF000891A990AA90AB90AA989BA89AB2B39F190
:10400000BAE08B169104A104B10408F1E989FA8998
:104010003196FA8BE98BC12CD12C7601812C912C15
:10402000540183949AE0492E512C612C712CC701C4
:10403000B601A30192010E942E39672B682B692BD0
:1040400051F4111644F469017A011150F0CFC12CDA
:10405000D12C7601E7CFB501A401C1010E94491C12
:10406000112371F14E01F1E18F0E911C012F5401CA
:104070008AE0482E512C612C712C015068F0C70148
:10408000B601A30192010E942E39605DD4016E93A6
:104090004D0169017A01F1CF812F90E0BC0160955B
:1040A0007095F501E81BF90B31978EE28083442768
:1040B0005527461B570B6A0D7B1DC1010E94E21B51
:1040C000E989FA89F7FF2AC06FEC72E0C1010E940A
:1040D000491E69897A89719561957109C1010E94AA
:1040E000171CD10194968D919C9166960FB6F89409
:1040F000DEBF0FBECDBFDF91CF911F910F91FF901B
:10410000EF90DF90CF90BF90AF909F908F907F9077
:104110006F905F904F903F902F90089529893A8932
:10412000232BF9F265E6C1010E94991B69897A89FE
:10413000D5CF6DE5C1010E94991BF10184A195A124
:10414000D4CF6BE7C1010E94991BD8010D911C913E
:104150000115110509F1F80166817781C1010E94FD
:10416000B51B6AE3C1010E94991BB101C8010E94FD
:10417000531ED80115968C91882371F0B8E08B02FC
:10418000C0011124080F191F0115110529F06CE257
:10419000C1010E94991BDCCF6DE7CCCF6D917C9162
:1041A000C1010E94B51BC9CFCD90DD90ED90FC9070
:1041B0006DE2C1010E94991BB701A601C1010E94D5
:1041C000491CBBCF4D915D916D917C91F7CFF8016A
:1041D00080819181A281B38162ED72E0892B8A2B6B
:1041E0008B2B09F0DBCD67ED72E0D8CD0F931F93D9
:1041F000CF93DF938B01EC012097E1F06E817F81FB
:1042000060177107B9F00115110541F061157105CD
:1042100029F0C8010E941C3D892B61F08D81882303
:1042200039F028E08202C0011124C80FD91FE4CF61
:10423000D0E0C0E0CE01DF91CF911F910F910895A2
:104240009F92AF92BF92CF92DF92EF92FF920F9325
:104250001F93CF93DF93EC018B01E42E0E949C0906
:10426000F82E81110EC0F12C8F2DDF91CF911F916F
:104270000F91FF90EF90DF90CF90BF90AF909F9005
:104280000895CE010E947209873209F415C114F510
:10429000823209F411C1CE010E947209B82E6E015A
:1042A000FFE0CF0ED11CE12C9C2CAD2C8B2D0E945D
:1042B0005A09882309F422C18FE3E81609F41EC1C4
:1042C0001C86E394F601B1926F01CE010E9472093F
:1042D000B82EECCF8B3509F455C08B37E1F6F801D9
:1042E000848180788062848311821082138212829A
:1042F000EE2009F452C01C86CE010E949C0988233E
:1043000009F4B1CF6DE7CE010E948B098111ACCFCA
:10431000EA94E881F981828193819B838A838481F5
:10432000958122813381821B930B9F838E831D8213
:104330001C82CE010E947209873209F46EC082325B
:1043400009F46BC0CE010E947209D82E0E945A094E
:10435000882309F45DC01C866D2DCE010E94090AD8
:10436000CE010E947209D82E0E945A098111F3CF02
:1043700060E0CE010E94090A8A819B81892B09F0A5
:1043800052C027C0F80184818078806484831182C0
:10439000108213821282E11007C0C15BDF4F86E0FA
:1043A00090E0998388835FCF1C86CE010E949C0990
:1043B000882309F458CF6DE5CE010E948B09811145
:1043C00053CFEA946D857E85C8010E94220D009727
:1043D00029F4C15BDF4F84E090E0E3CF4E2DBC01B8
:1043E000CE010E942021882309F43DCFCE010E94F6
:1043F0009C09882309F437CF6DE5CE010E948B0913
:10440000811132CF6CE2CE010E948B098111DACF8B
:10441000C15BDF4F83E090E0C4CFCE010E94270A4A
:10442000882309F420CFCE010E949C09882309F437
:104430001ACF6AE3CE010E948B09882349F36A816F
:104440007B81F801808191810E94F620BC01892B3B
:1044500099F4CE010E941A0B6C016D857E85C8010E
:104460000E94220DFC01892B09F4B3CF848180685E
:104470008483D782C682BF014E2DCE010E942021A7
:10448000882309F4F0CECE010E949C09882309F408
:10449000EACE6DE7CE010E948B098111E5CE6CE278
:1044A000CE010E948B09882309F4B2CFCE010E946D
:1044B0009C0981112ECFD7CEE881F9818281938129
:1044C0009B838A838481958122813381821B930B14
:1044D0009F838E831D821C82CE010E94270AF82EA4
:1044E000882309F4C0CECE010E941A0BF801248162
:1044F00020782560248391838083B6CEFE01EE0D63
:10450000F11D17868F858437B1F4F8018481807896
:104510008660848381E090E0A0E0B0E080839183B6
:10452000A283B383F4E0EF1609F49ECEC15BDF4FA4
:1045300082E090E036CF863659F4F80184818078A5
:10454000866084831082118212821382F5E0EBCFA1
:104550008E3621F484E0E812E9CF86CEB801892DA9
:104560009A2D0E94540B882309F452CF7DCEFC0172
:10457000248125FF04C0808191810C94F62090E075
:1045800080E008950F931F93CF93DF938C01EB018D
:10459000FC01808191810097E1F06881798161154A
:1045A0007105A9F0428153812C813D814217530747
:1045B00070F00E94253D8C819D81F8019583848354
:1045C0001D821C82DF91CF911F910F9108950E944F
:1045D000833B88819981F801918380838A819B81C3
:1045E000938382838C819D81958384831982188231
:1045F0001B821A82E5CFCF93DF93EC0188819981EA
:10460000009711F00E94833B198218821D821C8240
:104610001B821A82DF91CF910895CF93DF93EC0133
:10462000FB0101900020E9F73197AF01461B570BC2
:104630000E94501B811103C0CE010E94FB22CE01BB
:10464000DF91CF910895CF93DF93EC01FB0144817B
:104650005581608171810E94501B811103C0CE0180
:104660000E94FB22CE01DF91CF910895EF92FF923D
:104670000F931F93CF93DF93EC017B018A01BA0163
:104680000E94281B81110BC0CE010E94FB22CE018B
:10469000DF91CF911F910F91FF90EF9008951D83AF
:1046A0000C83B701888199810E94253DF0CFFB01E1
:1046B000DC0111961C921E9213961C921E92129768
:1046C00015961C921E9214978617970749F06081E1
:1046D00071816115710521F0448155810C94362357
:1046E0000895FC01118210821382128215821482B5
:1046F0006115710551F0FB0101900020E9F7319738
:10470000AF01461B570B0C9436230895AF92BF920E
:10471000CF92DF92EF92FF920F931F93CF93DF938D
:104720007C016B015A0189012417350720F48B2D78
:104730005901042F182F66EB72E0C7010E94712304
:10474000D6011496CD91DC91AC16BD0620F50C1760
:104750001D0708F4E801D601ED91FC911197EC0FCB
:10476000FD1F108110826D917C916A0D7B1D61157A
:104770007105E9F0FB0101900020E9F73197AF01E5
:10478000461B570BC7010E943623F6018081918199
:10479000C80FD91F1883C701DF91CF911F910F91C7
:1047A000FF90EF90DF90CF90BF90AF900895C7013A
:1047B0000E94FB22EACFFC0180819181009711F0D9
:1047C0000C94833B0895CF92DF92EF92FF920F9368
:1047D0001F93CF93DF93CDB7DEB7CE5BD1090FB672
:1047E000F894DEBF0FBECDBF8C017B016115710552
:1047F000F9F0FB0184818F7784508230C8F46081A6
:10480000718161157105A1F0C8010E947123C80171
:10481000C254DF4F0FB6F894DEBF0FBECDBFDF919D
:10482000CF911F910F91FF90EF90DF90CF9008955F
:104830006E01F9EBCF0ED11C66EB72E0C6010E944F
:104840007123CB56DF4FD982C882C559D040C95495
:10485000DF4F19821882C75BD04084E2FE01EB561D
:10486000FF4FDE01AF58BF4F01900D928A95E1F7DF
:1048700084E2FE01EF58FF4FDE01A35BBF4F0190C2
:104880000D928A95E1F784E2FE01E35BFF4FDE01C2
:10489000999601900D928A95E1F784E2FE01B9960E
:1048A000DE01119601900D928A95E1F71EA21DA2DC
:1048B000CE0189960E947C1BCE01835B9F4F0E9494
:1048C0007C1BE114F10419F1BE016F5F7F4FC7013A
:1048D0000E94531ECE0101960E947C1BCE018F5870
:1048E0009F4F0E947C1BCE018B569F4F0E947C1BCA
:1048F000F801118210821382128215821482B6018D
:10490000C8010E94C222C6010E94DB2380CF6AEC4C
:1049100072E0CE0101960E94491EDCCF85ED8093A6
:10492000BC008091990590919A05A0919B05B0914A
:104930009C050796A11DB11D23E0B695A7959795F7
:1049400087952A95D1F72091BC0024FD03C01092D1
:10495000E20508954091990550919A0560919B0553
:1049600070919C05452B462B472B69F30097A105B9
:10497000B10541F025E32A95F1F700000197A1095F
:10498000B109E1CF809198050C94DD053F924F92DB
:104990005F926F927F928F929F92AF92BF92CF92CF
:1049A000DF92EF92FF920F931F93CF93DF93CDB7D8
:1049B000DEB7EA970FB6F894DEBF0FBECDBF7C011D
:1049C0002A013B0169010E945E054B015C018701E0
:1049D0000D5B1F4FC8010E946016181619069CF047
:1049E0000E945E05681979098A099B0946165706CF
:1049F0006806790608F466C162E370E080E090E042
:104A00000E942C05E7CF42E250E0BE016F5F7F4F6E
:104A1000C8010E940A1489818230D1F0312C832D83
:104A2000EA960FB6F894DEBF0FBECDBFDF91CF91EF
:104A30001F910F91FF90EF90DF90CF90BF90AF90BC
:104A40009F908F907F906F905F904F903F900895D0
:104A5000F801848995898334910501F76D817E8100
:104A60008F8198850E94CC3A4B015C01F6018082CF
:104A70009182A282B38246E050E0B701685F7F4F27
:104A8000CE014D960E94ED3C892B41F6F7018081C5
:104A90009181A281B38188169906AA06BB0608F403
:104AA000BDCF84819581A681B78188159905AA0516
:104AB000BB0508F4B3CF89899A89AB89BC898687FD
:104AC0009787A08BB18B4EEC50E070E060E0C8019E
:104AD0000E940A14312CC701829698AB8FA7F70168
:104AE000B696FAABE9AB08969CAB8BAB67019AE143
:104AF000C90ED11CBD96FEABEDABC701429698AF77
:104B00008FABFD97FAAFE9AF4701FEE18F0E911C25
:104B1000F801818D928D181619060CF080CFC8010E
:104B20000E9429148333910509F4B2C014F5813031
:104B3000910509F464C044F4892B51F3C8010E9423
:104B40002914AC01552775C08330910509F462C062
:104B50000697A1F7C8010E942914B82E44E050E03E
:104B6000B401C8010E940A14EB2DE450FF0BAF0101
:104B700060C08A33910509F45FC084F585339105DF
:104B8000B1F1C697D9F6C8010E9429145C01B6019B
:104B9000CE0189960E9419168BA59CA5ADA5BEA530
:104BA000892B8A2B8B2BB1F0EDA9FEA94080518077
:104BB00062807380B601CE0183960E9419168DA182
:104BC0009EA1AFA1B8A5A501481659066A067B06A5
:104BD00009F0B8CF44E050E0B60118C08B3391051E
:104BE00009F440C08F3F910509F492CFA7CFC801C7
:104BF0000E942914C8010E942914382E89CFC801A7
:104C00000E94291444E050E06FA978ADC8010E94C9
:104C10000A147ECFC8010E942914B82E44E050E047
:104C200069AD7AADC8010E940A148B2D8450990B8E
:104C3000AC0170E060E0EACFC8010E94291444E0B2
:104C400050E069A97AA9C8010E940A14F70166A177
:104C500077A180A591A50E94CC3A66A377A380A7EF
:104C600091A756CFC8010E94291444E050E06BA9D7
:104C70007CA9C8010E940A14F70162A573A584A546
:104C800095A50E94CC3A62A773A784A795A740CFA9
:104C9000C8010E94291444E050E06FA578A9C8011A
:104CA0000E940A14F70162A173A184A195A10E9438
:104CB000CC3A62A373A384A395A366A777A780AB1E
:104CC00091AB26CF33243A94AACE2F923F924F92A3
:104CD0005F926F927F928F929F92AF92BF92CF928C
:104CE000DF92EF92FF920F931F93CF93DF9300D049
:104CF00000D000D01F92CDB7DEB77C018091CB06EB
:104D000081112AC01092B3061092B20688EE93E089
:104D1000A0E0B0E08093B4069093B506A093B606E9
:104D2000B093B7068CE192E09093B1068093B00601
:104D300084EA92E09093BF068093BE061092C0066C
:104D40001092C1061092C2061092C30688E08093AA
:104D5000C80681E08093CB068DE696E090936C06C2
:104D600080936B0680916A06811197C060E372E0C0
:104D700080E090E00E942C051FB7F89480916706B0
:104D8000811124C0E6E8F4E08491ECECF4E0949125
:104D9000E82FF0E0EE0FFF1FE95CFB4FA591B49107
:104DA000EC91E92321F461E085E30E947B0485E333
:104DB0000E94E5028CB580618CBD8CB580648CBD91
:104DC00084E30E94E50283E30E94E5028091670686
:104DD0008F5F809367061FBFEBE5F4E0E491F0E09E
:104DE000EE0FFF1FE35EFB4F859194919093660653
:104DF00080936506E1EAF4E0E491E09364068AE0DA
:104E00000E94E5020E94840780E591E00E94CB02A7
:104E100084E38093680680E80E944E080E94B10FE8
:104E2000882309F47BC188E00E944E080E949E0FEF
:104E3000883009F073C180E10E944E080E949E0FE5
:104E4000803109F06BC180E00E944E080E949E0FE5
:104E5000182F811163C141E050E0BE016F5F7F4FA9
:104E60008FE190E00E94290E8981833009F056C1BC
:104E700080E48093690642E06EE170E0812F0E9439
:104E8000AC0842E06FE170E0812F0E94AC081F5F28
:104E9000183089F781E080936A0680E591E00E94EE
:104EA000CB0246E050E0B70189E090E00E94A00705
:104EB00084EA92E09A8389831B821C821D821E826F
:104EC00044E050E0BE016D5F7F4F8FE090E00E94B4
:104ED000A00700916B0610916C06D80192961D9266
:104EE0001D921D921C929597F80116A217A210A66A
:104EF00011A69A961D921D921D921C929D9780E676
:104F00009AEEA0E0B0E086AB97ABA0AFB1AF80EA7D
:104F10009FE0A0E0B0E082AF93AFA4AFB5AFD801FF
:104F2000189686E0FD01982F11929A95E9F798015D
:104F3000225F3F4F94E1F90111929A95E9F7F70149
:104F400001900D928A95E1F74801F2E48F0E911CD1
:104F5000D4011C920E9402362FEC37E040E050E072
:104F60000E945039DC01CB010196A11DB11DF80151
:104F700084839583A683B78380839183A283B3833D
:104F8000C8018D5B9F4F9A8789870E94F90E64E460
:104F900070E089859A850E942915882309F427C124
:104FA0000E945E052B013C0148EEA42E43E0B42E86
:104FB000C12CD12C52E0252EF12CE12CD4018C9166
:104FC0008330B1F181112FC1F80184819581A681CF
:104FD000B7810196A11DB11D84839583A683B783F4
:104FE0000E945E056419750986099709A601950155
:104FF0000E942E39A90161E0C8010E941A1A81E0BD
:10500000D4018C93F1E0EF16F104C1F20E945E0529
:105010006419750986099709D801D6962D913D9195
:105020004D915C91D997261737074807590720F605
:1050300089859A850E94F90EF80184819581A6815F
:10504000B7810196A11DB11D84839583A683B78383
:105050000E945E05F801FE966083718382839383CC
:10506000F1E0EF16F10409F0C2C080E591E00E9482
:10507000CB0200916B0610916C06B801625F7F4F06
:10508000CE0101960E94191644E050E0BE016D5F0A
:105090007F4F8FE090E00E94A007B8016A5E7F4FCB
:1050A000CE0101960E94191644E050E0BE016D5FEA
:1050B0007F4F81E090E00E94A007B8016E5E7F4FB5
:1050C000CE0101960E94191644E050E0BE016D5FCA
:1050D0007F4F85E090E00E94A007B801625E7F4F9D
:1050E000CE0101960E9419168B819C81AD81BE81F3
:1050F0008093390890933A08A0933B08B0933C08FA
:105100000E9407057F738091000290910102682739
:10511000792770930102609300026BC087E380934C
:10512000680680E80E944E080E94B10F882329F18A
:1051300088E00E944E080E949E0F8830F1F480E1C2
:105140000E944E080E949E0F182F8031B1F480E01B
:105150000E944E080E949E0F81110FC041E050E056
:10516000BE016F5F7F4F89E390E00E94290E898125
:10517000843019F4109369068DCE83E3809368061A
:1051800080E80E944E080E94B10F882371F180E1EF
:105190000E944E080E949E0F803139F582E10E94E4
:1051A0004E080E949E0F823101F580E00E944E0859
:1051B0000E949E0F811119C084E08093690615E555
:1051C000188741E050E0BE01685F7F4F8BE190E0BF
:1051D0000E94A0071F8341E050E0BE01695F7F4F3E
:1051E0008AE190E00E94A00755CE10926806F12C4B
:1051F000E12CC7012A960FB6F894DEBF0FBECDBFD3
:10520000DF91CF911F910F91FF90EF90DF90CF90A2
:10521000BF90AF909F908F907F906F905F904F90D6
:105220003F902F9008958430F1F4F80184819581A6
:10523000A681B7810196A11DB11D84839583A683A4
:10524000B7830E945E056419750986099709A6014E
:1052500095010E942E39A90163E0C8010E941A1A23
:10526000D4012C92CFCE813051F5F80142AD53AD2F
:1052700064AD75AD9E012F5F3F4FC8010E94C624EB
:10528000382EF2E08F138FC089819A81AB81BC8167
:10529000F80184839583A683B7830E945E05641911
:1052A000750986099709A60195010E942E39A90161
:1052B00063E0C8010E941A1AD4013C92A3CE823046
:1052C00009F0A0CEF80142AD53AD64AD75AD9E01BD
:1052D0002F5F3F4FC8010E94C624382EF5E08F1380
:1052E0005CC0E3E0D401EC93F80182A193A1A4A1F6
:1052F000B5A1892B8A2B8B2B41F484E893E0A0E0A5
:10530000B0E082A393A3A4A3B5A3F80186A197A1BB
:10531000A0A5B1A5892B8A2B8B2B61F482A193A127
:10532000A4A1B5A1B695A7959795879586A397A3B0
:10533000A0A7B1A7F80182A593A5A4A5B5A5892B1F
:105340008A2B8B2BA9F482A193A1A4A1B5A1AC01B6
:10535000BD0123E076956795579547952A95D1F736
:10536000841B950BA60BB70B82A793A7A4A7B5A781
:10537000F80186A197A1A0A5B1A586A797A7A0AB84
:10538000B1AB82A593A5A4A5B5A582AB93ABA4AB05
:10539000B5ABEE24E394F12C35CEF6E08F1303C0C9
:1053A000D4011C922FCEBFEF3B122CCEF401108201
:1053B00029CE1F920F920FB60F9211240BB60F92A7
:1053C0002F933F934F935F936F937F938F939F930D
:1053D000AF93BF93EF93FF9383ED96E00E94BF03DB
:1053E000FF91EF91BF91AF919F918F917F916F91BD
:1053F0005F914F913F912F910F900BBE0F900FBE79
:105400000F901F9018951F920F920FB60F921124B4
:105410000BB60F922F938F939F93EF93FF93E0918F
:10542000E306F091E4068081E091E906F091EA0656
:1054300082FD1DC090818091EC068F5F8F7320915B
:10544000ED06821741F0E091EC06F0E0ED52F94FE5
:10545000958F8093EC06FF91EF919F918F912F9103
:105460000F900BBE0F900FBE0F901F90189580816C
:10547000F2CF1F920F920FB60F9211240BB60F921C
:105480002F933F934F935F936F937F938F939F934C
:10549000AF93BF93EF93FF9380E797E00E94BF0322
:1054A000FF91EF91BF91AF919F918F917F916F91FC
:1054B0005F914F913F912F910F900BBE0F900FBEB8
:1054C0000F901F9018951F920F920FB60F921124F4
:1054D0000BB60F922F938F939F93EF93FF93E091CF
:1054E0008007F09181078081E0918607F09187071E
:1054F00082FD1DC09081809189078F5F8F732091FD
:105500008A07821741F0E0918907F0E0E059F84FEF
:10551000958F80938907FF91EF919F918F912F91A4
:105520000F900BBE0F900FBE0F901F9018958081AB
:10553000F2CF1F920F920FB60F9211242F933F9329
:105540008F939F93AF93BF938091090690910A0622
:10555000A0910B06B0910C063091080623E0230FB2
:105560002D3758F50196A11DB11D20930806809393
:10557000090690930A06A0930B06B0930C0680913F
:105580000D0690910E06A0910F06B091100601969F
:10559000A11DB11D80930D0690930E06A0930F06DA
:1055A000B0931006BF91AF919F918F913F912F9132
:1055B0000F900FBE0F901F90189526E8230F0296AC
:1055C000A11DB11DD2CF1F920F920FB60F921124C1
:1055D0000BB60F922F933F934F935F936F937F93ED
:1055E0008F939F93AF93BF93EF93FF938091B900F5
:1055F000887F803609F44DC008F040C0883209F435
:10560000A9C028F5803109F49DC0C8F4882309F4A5
:10561000FBC0883009F496C0FF91EF91BF91AF9124
:105620009F918F917F916F915F914F913F912F91BA
:105630000F900BBE0F900FBE0F901F9018958831E2
:1056400009F488C0803241F78093E10514C08034AA
:1056500009F49DC040F48033B9F38833E9F68093B0
:10566000E10585ECB0C0803509F485C0883509F4C2
:1056700096C0883489F60E948E24CECF883909F4EA
:105680008CC038F5883729F050F4883611F080370F
:1056900019F683E08093E2051092E00557C0883840
:1056A00009F47BC0803919F0803809F0B5CF8091BA
:1056B000E005803208F071C0E091E00581E08E0FD6
:1056C0008093E0058091BB00F0E0E054FA4F8083C6
:1056D0003DC0803B39F0E0F4803A09F479C0883A63
:1056E00009F09ACF84E08093E2051092BF051092F2
:1056F000BE05E0911306F091140619958091BE0540
:1057000081110FC081E08093BE0510929E0509C0F3
:10571000803C09F4A6CF883C09F4A3CF883B09F06C
:105720007BCFE091BF0581E08E0F8093BF05F0E055
:10573000E256FA4F80818093BB009091BF05809123
:10574000BE0529C0809107068093BB0085EC80933D
:10575000BC0062CF9091060680910506981758F517
:10576000E091060681E08E0F80930606F0E0EB5193
:10577000FA4F8081E9CFE091060681E08E0F809399
:1057800006068091BB00F0E0EB51FA4F80839091C8
:105790000606809105069817C8F285E8D8CFE091F3
:1057A000060681E08E0F809306068091BB00F0E034
:1057B000EB51FA4F80838091E40581115CCF81E049
:1057C0008093E30584EA8093BC001092E20524CF25
:1057D00085EC8093BC001092E2058091E005803258
:1057E00030F4E091E005F0E0E054FA4F108260916F
:1057F000E00570E0E0911106F091120680EC95E072
:1058000019951092E00508CF1092E10534CFCF92A0
:10581000DF92EF92FF920F931F93CF93DF9300D00D
:1058200000D0CDB7DEB7E3EDF6E01382128288EE4A
:10583000C82E83E0D82EE12CF12CC482D582E682DA
:10584000F78286E492E0918380832DEC30E0358707
:1058500024872CEC30E03787268728EC30E0318B2A
:10586000208B29EC30E0338B228B2AEC30E0358B17
:10587000248B2EEC30E0378B268B118E128E138EFC
:10588000148EE0E7F7E013821282C482D582E682AA
:10589000F7829183808385EC90E09587848784EC00
:1058A00090E09787868780EC90E0918B808B81ECED
:1058B00090E0938B828B82EC90E0958B848B86ECCE
:1058C00090E0978B868B118E128E138E148EEDE0E6
:1058D000F8E013821282C482D582E682F78288E5DC
:1058E00092E091838083E9E1F8E004EA12E0118319
:1058F00000831282138214821582EFE1F8E0118393
:1059000000831282138214821582E5E2F8E011838B
:1059100000831282138214821582EBE2F8E0118375
:1059200000831282138214821582E1E3F8E011836E
:1059300000831282138214821582EDE3F8E0118352
:1059400000831282138214821582E7E3F8E0118348
:1059500000831282138214821582E3E4F8E011833B
:1059600000831282138214821582E9E4F8E0118325
:1059700000831282138214821582E0EAF8E0118318
:1059800000831282138214821582E4E9F8E0138204
:10599000128288E992E09183808387E2848380E1A8
:1059A000818782E0828713866DED72E08EE898E051
:1059B0000E94712362EF72E088E898E00E947123F0
:1059C00066EB72E082E898E00E94712366EB72E079
:1059D0008CE798E00E94712366EB72E086E798E01E
:1059E0000E94712367E073E080E798E00E947123D2
:1059F0006DE173E0CE0101960E9471236EE878E0BC
:105A0000CE0101960E94232362E573E00E940D23DC
:105A100068E878E00E942323BC018AE698E00E94AF
:105A20005723CE0101960E94DB23E4E6F8E01183C0
:105A3000008320EC228398EA938381E084833DE114
:105A40003583EEE5F8E0118300832283938384831A
:105A50008583EFE4F8E013821282C482D582E68265
:105A6000F7828AE692E09183808388E0848788EEDB
:105A700093E09687858726960FB6F894DEBF0FBE13
:105A8000CDBFDF91CF911F910F91FF90EF90DF90ED
:105A9000CF900895CF93DF93CDB7DEB7CC5AD1091D
:105AA0000FB6F894DEBF0FBECDBF789484B5826088
:105AB00084BD84B5816084BD85B5826085BD85B5B2
:105AC000816085BD80916E00816080936E00109230
:105AD00081008091810082608093810080918100AB
